{
  "contractName": "CustomERC721Token",
  "abi": [
    {
      "inputs": [],
      "payable": false,
      "stateMutability": "nonpayable",
      "type": "constructor"
    },
    {
      "anonymous": false,
      "inputs": [
        {
          "indexed": true,
          "internalType": "address",
          "name": "owner",
          "type": "address"
        },
        {
          "indexed": true,
          "internalType": "address",
          "name": "approved",
          "type": "address"
        },
        {
          "indexed": true,
          "internalType": "uint256",
          "name": "tokenId",
          "type": "uint256"
        }
      ],
      "name": "Approval",
      "type": "event"
    },
    {
      "anonymous": false,
      "inputs": [
        {
          "indexed": true,
          "internalType": "address",
          "name": "owner",
          "type": "address"
        },
        {
          "indexed": true,
          "internalType": "address",
          "name": "operator",
          "type": "address"
        },
        {
          "indexed": false,
          "internalType": "bool",
          "name": "approved",
          "type": "bool"
        }
      ],
      "name": "ApprovalForAll",
      "type": "event"
    },
    {
      "anonymous": false,
      "inputs": [
        {
          "indexed": true,
          "internalType": "address",
          "name": "account",
          "type": "address"
        }
      ],
      "name": "Paused",
      "type": "event"
    },
    {
      "anonymous": false,
      "inputs": [
        {
          "indexed": true,
          "internalType": "address",
          "name": "from",
          "type": "address"
        },
        {
          "indexed": true,
          "internalType": "address",
          "name": "to",
          "type": "address"
        },
        {
          "indexed": true,
          "internalType": "uint256",
          "name": "tokenId",
          "type": "uint256"
        }
      ],
      "name": "Transfer",
      "type": "event"
    },
    {
      "anonymous": false,
      "inputs": [
        {
          "indexed": true,
          "internalType": "address",
          "name": "oldOwner",
          "type": "address"
        },
        {
          "indexed": true,
          "internalType": "address",
          "name": "newOwner",
          "type": "address"
        }
      ],
      "name": "TransferOwnership",
      "type": "event"
    },
    {
      "anonymous": false,
      "inputs": [
        {
          "indexed": true,
          "internalType": "address",
          "name": "account",
          "type": "address"
        }
      ],
      "name": "Unpaused",
      "type": "event"
    },
    {
      "constant": false,
      "inputs": [
        {
          "internalType": "bytes32",
          "name": "_myid",
          "type": "bytes32"
        },
        {
          "internalType": "string",
          "name": "_result",
          "type": "string"
        }
      ],
      "name": "__callback",
      "outputs": [],
      "payable": false,
      "stateMutability": "nonpayable",
      "type": "function"
    },
    {
      "constant": false,
      "inputs": [
        {
          "internalType": "bytes32",
          "name": "_myid",
          "type": "bytes32"
        },
        {
          "internalType": "string",
          "name": "_result",
          "type": "string"
        },
        {
          "internalType": "bytes",
          "name": "_proof",
          "type": "bytes"
        }
      ],
      "name": "__callback",
      "outputs": [],
      "payable": false,
      "stateMutability": "nonpayable",
      "type": "function"
    },
    {
      "constant": false,
      "inputs": [
        {
          "internalType": "address",
          "name": "newOwner",
          "type": "address"
        }
      ],
      "name": "_transferOwnership",
      "outputs": [],
      "payable": false,
      "stateMutability": "nonpayable",
      "type": "function"
    },
    {
      "constant": false,
      "inputs": [
        {
          "internalType": "address",
          "name": "to",
          "type": "address"
        },
        {
          "internalType": "uint256",
          "name": "tokenId",
          "type": "uint256"
        }
      ],
      "name": "approve",
      "outputs": [],
      "payable": false,
      "stateMutability": "nonpayable",
      "type": "function"
    },
    {
      "constant": true,
      "inputs": [
        {
          "internalType": "address",
          "name": "owner",
          "type": "address"
        }
      ],
      "name": "balanceOf",
      "outputs": [
        {
          "internalType": "uint256",
          "name": "",
          "type": "uint256"
        }
      ],
      "payable": false,
      "stateMutability": "view",
      "type": "function"
    },
    {
      "constant": true,
      "inputs": [],
      "name": "baseTokenURI",
      "outputs": [
        {
          "internalType": "string",
          "name": "",
          "type": "string"
        }
      ],
      "payable": false,
      "stateMutability": "view",
      "type": "function"
    },
    {
      "constant": true,
      "inputs": [
        {
          "internalType": "uint256",
          "name": "tokenId",
          "type": "uint256"
        }
      ],
      "name": "getApproved",
      "outputs": [
        {
          "internalType": "address",
          "name": "",
          "type": "address"
        }
      ],
      "payable": false,
      "stateMutability": "view",
      "type": "function"
    },
    {
      "constant": true,
      "inputs": [],
      "name": "getOwner",
      "outputs": [
        {
          "internalType": "address",
          "name": "",
          "type": "address"
        }
      ],
      "payable": false,
      "stateMutability": "view",
      "type": "function"
    },
    {
      "constant": true,
      "inputs": [
        {
          "internalType": "address",
          "name": "owner",
          "type": "address"
        },
        {
          "internalType": "address",
          "name": "operator",
          "type": "address"
        }
      ],
      "name": "isApprovedForAll",
      "outputs": [
        {
          "internalType": "bool",
          "name": "",
          "type": "bool"
        }
      ],
      "payable": false,
      "stateMutability": "view",
      "type": "function"
    },
    {
      "constant": true,
      "inputs": [],
      "name": "isOwner",
      "outputs": [
        {
          "internalType": "bool",
          "name": "",
          "type": "bool"
        }
      ],
      "payable": false,
      "stateMutability": "view",
      "type": "function"
    },
    {
      "constant": true,
      "inputs": [],
      "name": "name",
      "outputs": [
        {
          "internalType": "string",
          "name": "",
          "type": "string"
        }
      ],
      "payable": false,
      "stateMutability": "view",
      "type": "function"
    },
    {
      "constant": true,
      "inputs": [
        {
          "internalType": "uint256",
          "name": "tokenId",
          "type": "uint256"
        }
      ],
      "name": "ownerOf",
      "outputs": [
        {
          "internalType": "address",
          "name": "",
          "type": "address"
        }
      ],
      "payable": false,
      "stateMutability": "view",
      "type": "function"
    },
    {
      "constant": false,
      "inputs": [
        {
          "internalType": "address",
          "name": "from",
          "type": "address"
        },
        {
          "internalType": "address",
          "name": "to",
          "type": "address"
        },
        {
          "internalType": "uint256",
          "name": "tokenId",
          "type": "uint256"
        }
      ],
      "name": "safeTransferFrom",
      "outputs": [],
      "payable": false,
      "stateMutability": "nonpayable",
      "type": "function"
    },
    {
      "constant": false,
      "inputs": [
        {
          "internalType": "address",
          "name": "from",
          "type": "address"
        },
        {
          "internalType": "address",
          "name": "to",
          "type": "address"
        },
        {
          "internalType": "uint256",
          "name": "tokenId",
          "type": "uint256"
        },
        {
          "internalType": "bytes",
          "name": "_data",
          "type": "bytes"
        }
      ],
      "name": "safeTransferFrom",
      "outputs": [],
      "payable": false,
      "stateMutability": "nonpayable",
      "type": "function"
    },
    {
      "constant": false,
      "inputs": [
        {
          "internalType": "address",
          "name": "to",
          "type": "address"
        },
        {
          "internalType": "bool",
          "name": "approved",
          "type": "bool"
        }
      ],
      "name": "setApprovalForAll",
      "outputs": [],
      "payable": false,
      "stateMutability": "nonpayable",
      "type": "function"
    },
    {
      "constant": false,
      "inputs": [
        {
          "internalType": "bool",
          "name": "mode",
          "type": "bool"
        }
      ],
      "name": "setPaused",
      "outputs": [],
      "payable": false,
      "stateMutability": "nonpayable",
      "type": "function"
    },
    {
      "constant": true,
      "inputs": [
        {
          "internalType": "bytes4",
          "name": "interfaceId",
          "type": "bytes4"
        }
      ],
      "name": "supportsInterface",
      "outputs": [
        {
          "internalType": "bool",
          "name": "",
          "type": "bool"
        }
      ],
      "payable": false,
      "stateMutability": "view",
      "type": "function"
    },
    {
      "constant": true,
      "inputs": [],
      "name": "symbol",
      "outputs": [
        {
          "internalType": "string",
          "name": "",
          "type": "string"
        }
      ],
      "payable": false,
      "stateMutability": "view",
      "type": "function"
    },
    {
      "constant": true,
      "inputs": [
        {
          "internalType": "uint256",
          "name": "index",
          "type": "uint256"
        }
      ],
      "name": "tokenByIndex",
      "outputs": [
        {
          "internalType": "uint256",
          "name": "",
          "type": "uint256"
        }
      ],
      "payable": false,
      "stateMutability": "view",
      "type": "function"
    },
    {
      "constant": true,
      "inputs": [
        {
          "internalType": "address",
          "name": "owner",
          "type": "address"
        },
        {
          "internalType": "uint256",
          "name": "index",
          "type": "uint256"
        }
      ],
      "name": "tokenOfOwnerByIndex",
      "outputs": [
        {
          "internalType": "uint256",
          "name": "",
          "type": "uint256"
        }
      ],
      "payable": false,
      "stateMutability": "view",
      "type": "function"
    },
    {
      "constant": true,
      "inputs": [
        {
          "internalType": "uint256",
          "name": "tokenId",
          "type": "uint256"
        }
      ],
      "name": "tokenURI",
      "outputs": [
        {
          "internalType": "string",
          "name": "",
          "type": "string"
        }
      ],
      "payable": false,
      "stateMutability": "view",
      "type": "function"
    },
    {
      "constant": true,
      "inputs": [],
      "name": "totalSupply",
      "outputs": [
        {
          "internalType": "uint256",
          "name": "",
          "type": "uint256"
        }
      ],
      "payable": false,
      "stateMutability": "view",
      "type": "function"
    },
    {
      "constant": false,
      "inputs": [
        {
          "internalType": "address",
          "name": "from",
          "type": "address"
        },
        {
          "internalType": "address",
          "name": "to",
          "type": "address"
        },
        {
          "internalType": "uint256",
          "name": "tokenId",
          "type": "uint256"
        }
      ],
      "name": "transferFrom",
      "outputs": [],
      "payable": false,
      "stateMutability": "nonpayable",
      "type": "function"
    },
    {
      "constant": false,
      "inputs": [
        {
          "internalType": "address",
          "name": "newOwner",
          "type": "address"
        }
      ],
      "name": "transferOwnership",
      "outputs": [],
      "payable": false,
      "stateMutability": "nonpayable",
      "type": "function"
    },
    {
      "constant": false,
      "inputs": [
        {
          "internalType": "address",
          "name": "to",
          "type": "address"
        },
        {
          "internalType": "uint256",
          "name": "tokenId",
          "type": "uint256"
        }
      ],
      "name": "mint",
      "outputs": [
        {
          "internalType": "bool",
          "name": "",
          "type": "bool"
        }
      ],
      "payable": false,
      "stateMutability": "nonpayable",
      "type": "function"
    }
  ],
  "bytecode": "0x60806040523480156200001157600080fd5b506040518060400160405280600981526020017f73746172546f6b656e00000000000000000000000000000000000000000000008152506040518060400160405280600681526020017f737472546b6e00000000000000000000000000000000000000000000000000008152506040518060600160405280603f815260200162002d6f603f9139336000806101000a81548173ffffffffffffffffffffffffffffffffffffffff021916908373ffffffffffffffffffffffffffffffffffffffff1602179055506000809054906101000a900473ffffffffffffffffffffffffffffffffffffffff1673ffffffffffffffffffffffffffffffffffffffff16600073ffffffffffffffffffffffffffffffffffffffff167f5c486528ec3e3f0ea91181cff8116f02bfa350e03b8b6f12e00765adbb5af85c60405160405180910390a360008060146101000a81548160ff021916908315150217905550620001866301ffc9a760e01b6200022260201b60201c565b6200019e6380ac58cd60e01b6200022260201b60201c565b620001b663780e9d6360e01b6200022260201b60201c565b82600f9080519060200190620001ce929190620002c2565b508160109080519060200190620001e7929190620002c2565b50806011908051906020019062000200929190620002c2565b5062000219635b5e139f60e01b6200022260201b60201c565b50505062000371565b63ffffffff60e01b817bffffffffffffffffffffffffffffffffffffffffffffffffffffffff191614156200025657600080fd5b6001806000837bffffffffffffffffffffffffffffffffffffffffffffffffffffffff19167bffffffffffffffffffffffffffffffffffffffffffffffffffffffff1916815260200190815260200160002060006101000a81548160ff02191690831515021790555050565b828054600181600116156101000203166002900490600052602060002090601f016020900481019282601f106200030557805160ff191683800117855562000336565b8280016001018555821562000336579182015b828111156200033557825182559160200191906001019062000318565b5b50905062000345919062000349565b5090565b6200036e91905b808211156200036a57600081600090555060010162000350565b5090565b90565b6129ee80620003816000396000f3fe608060405234801561001057600080fd5b50600436106101735760003560e01c80634f6ccce7116100de578063a22cb46511610097578063d29d44ee11610071578063d29d44ee14610b22578063d547cfb714610b66578063e985e9c514610be9578063f2fde38b14610c6557610173565b8063a22cb46514610926578063b88d4fde14610976578063c87b56dd14610a7b57610173565b80634f6ccce71461072f5780636352211e1461077157806370a08231146107df578063893d20e8146108375780638f32d59b1461088157806395d89b41146108a357610173565b806323b872dd1161013057806323b872dd1461036a57806327dc297e146103d85780632f745c591461049d57806338bbfa50146104ff57806340c10f191461065b57806342842e0e146106c157610173565b806301ffc9a71461017857806306fdde03146101dd578063081812fc14610260578063095ea7b3146102ce57806316c38b3c1461031c57806318160ddd1461034c575b600080fd5b6101c36004803603602081101561018e57600080fd5b8101908080357bffffffffffffffffffffffffffffffffffffffffffffffffffffffff19169060200190929190505050610ca9565b604051808215151515815260200191505060405180910390f35b6101e5610d11565b6040518080602001828103825283818151815260200191508051906020019080838360005b8381101561022557808201518184015260208101905061020a565b50505050905090810190601f1680156102525780820380516001836020036101000a031916815260200191505b509250505060405180910390f35b61028c6004803603602081101561027657600080fd5b8101908080359060200190929190505050610db3565b604051808273ffffffffffffffffffffffffffffffffffffffff1673ffffffffffffffffffffffffffffffffffffffff16815260200191505060405180910390f35b61031a600480360360408110156102e457600080fd5b81019080803573ffffffffffffffffffffffffffffffffffffffff16906020019092919080359060200190929190505050610df0565b005b61034a6004803603602081101561033257600080fd5b81019080803515159060200190929190505050610f9f565b005b61035461107f565b6040518082815260200191505060405180910390f35b6103d66004803603606081101561038057600080fd5b81019080803573ffffffffffffffffffffffffffffffffffffffff169060200190929190803573ffffffffffffffffffffffffffffffffffffffff1690602001909291908035906020019092919050505061108c565b005b61049b600480360360408110156103ee57600080fd5b81019080803590602001909291908035906020019064010000000081111561041557600080fd5b82018360208201111561042757600080fd5b8035906020019184600183028401116401000000008311171561044957600080fd5b91908080601f016020809104026020016040519081016040528093929190818152602001838380828437600081840152601f19601f8201169050808301925050505050505091929192905050506110af565b005b6104e9600480360360408110156104b357600080fd5b81019080803573ffffffffffffffffffffffffffffffffffffffff169060200190929190803590602001909291905050506110f2565b6040518082815260200191505060405180910390f35b6106596004803603606081101561051557600080fd5b81019080803590602001909291908035906020019064010000000081111561053c57600080fd5b82018360208201111561054e57600080fd5b8035906020019184600183028401116401000000008311171561057057600080fd5b91908080601f016020809104026020016040519081016040528093929190818152602001838380828437600081840152601f19601f820116905080830192505050505050509192919290803590602001906401000000008111156105d357600080fd5b8201836020820111156105e557600080fd5b8035906020019184600183028401116401000000008311171561060757600080fd5b91908080601f016020809104026020016040519081016040528093929190818152602001838380828437600081840152601f19601f820116905080830192505050505050509192919290505050611165565b005b6106a76004803603604081101561067157600080fd5b81019080803573ffffffffffffffffffffffffffffffffffffffff1690602001909291908035906020019092919050505061116a565b604051808215151515815260200191505060405180910390f35b61072d600480360360608110156106d757600080fd5b81019080803573ffffffffffffffffffffffffffffffffffffffff169060200190929190803573ffffffffffffffffffffffffffffffffffffffff1690602001909291908035906020019092919050505061119a565b005b61075b6004803603602081101561074557600080fd5b81019080803590602001909291905050506111ba565b6040518082815260200191505060405180910390f35b61079d6004803603602081101561078757600080fd5b81019080803590602001909291905050506111ee565b604051808273ffffffffffffffffffffffffffffffffffffffff1673ffffffffffffffffffffffffffffffffffffffff16815260200191505060405180910390f35b610821600480360360208110156107f557600080fd5b81019080803573ffffffffffffffffffffffffffffffffffffffff16906020019092919050505061122b565b6040518082815260200191505060405180910390f35b61083f61127b565b604051808273ffffffffffffffffffffffffffffffffffffffff1673ffffffffffffffffffffffffffffffffffffffff16815260200191505060405180910390f35b6108896112a4565b604051808215151515815260200191505060405180910390f35b6108ab6112fb565b6040518080602001828103825283818151815260200191508051906020019080838360005b838110156108eb5780820151818401526020810190506108d0565b50505050905090810190601f1680156109185780820380516001836020036101000a031916815260200191505b509250505060405180910390f35b6109746004803603604081101561093c57600080fd5b81019080803573ffffffffffffffffffffffffffffffffffffffff16906020019092919080351515906020019092919050505061139d565b005b610a796004803603608081101561098c57600080fd5b81019080803573ffffffffffffffffffffffffffffffffffffffff169060200190929190803573ffffffffffffffffffffffffffffffffffffffff16906020019092919080359060200190929190803590602001906401000000008111156109f357600080fd5b820183602082011115610a0557600080fd5b80359060200191846001830284011164010000000083111715610a2757600080fd5b91908080601f016020809104026020016040519081016040528093929190818152602001838380828437600081840152601f19601f8201169050808301925050505050505091929192905050506114d7565b005b610aa760048036036020811015610a9157600080fd5b81019080803590602001909291905050506114fd565b6040518080602001828103825283818151815260200191508051906020019080838360005b83811015610ae7578082015181840152602081019050610acc565b50505050905090810190601f168015610b145780820380516001836020036101000a031916815260200191505b509250505060405180910390f35b610b6460048036036020811015610b3857600080fd5b81019080803573ffffffffffffffffffffffffffffffffffffffff1690602001909291905050506115c4565b005b610b6e6116cd565b6040518080602001828103825283818151815260200191508051906020019080838360005b83811015610bae578082015181840152602081019050610b93565b50505050905090810190601f168015610bdb5780820380516001836020036101000a031916815260200191505b509250505060405180910390f35b610c4b60048036036040811015610bff57600080fd5b81019080803573ffffffffffffffffffffffffffffffffffffffff169060200190929190803573ffffffffffffffffffffffffffffffffffffffff16906020019092919050505061176f565b604051808215151515815260200191505060405180910390f35b610ca760048036036020811015610c7b57600080fd5b81019080803573ffffffffffffffffffffffffffffffffffffffff169060200190929190505050611803565b005b600060016000837bffffffffffffffffffffffffffffffffffffffffffffffffffffffff19167bffffffffffffffffffffffffffffffffffffffffffffffffffffffff1916815260200190815260200160002060009054906101000a900460ff169050919050565b6060600f8054600181600116156101000203166002900480601f016020809104026020016040519081016040528092919081815260200182805460018160011615610100020316600290048015610da95780601f10610d7e57610100808354040283529160200191610da9565b820191906000526020600020905b815481529060010190602001808311610d8c57829003601f168201915b5050505050905090565b60006003600083815260200190815260200160002060009054906101000a900473ffffffffffffffffffffffffffffffffffffffff169050919050565b8173ffffffffffffffffffffffffffffffffffffffff166002600083815260200190815260200160002060009054906101000a900473ffffffffffffffffffffffffffffffffffffffff1673ffffffffffffffffffffffffffffffffffffffff161415610ea8576040517f08c379a000000000000000000000000000000000000000000000000000000000815260040180806020018281038252603c81526020018061297e603c913960400191505060405180910390fd5b610eb23382611820565b610ebb57600080fd5b816003600083815260200190815260200160002060006101000a81548173ffffffffffffffffffffffffffffffffffffffff021916908373ffffffffffffffffffffffffffffffffffffffff160217905550808273ffffffffffffffffffffffffffffffffffffffff166002600084815260200190815260200160002060009054906101000a900473ffffffffffffffffffffffffffffffffffffffff1673ffffffffffffffffffffffffffffffffffffffff167f8c5be1e5ebec7d5bd14f71427d1e84f3dd0314c0f7b2291e5b200ac8c7c3b92560405160405180910390a45050565b610fa76112a4565b610fb057600080fd5b801515600060149054906101000a900460ff1615151415610fd057600080fd5b80600060146101000a81548160ff0219169083151502179055508015611038573373ffffffffffffffffffffffffffffffffffffffff167f5db9ee0a495bf2e6ff9c91a7834c1ba4fdd244a5e8aa4e537bd38aeae4b073aa60405160405180910390a261107c565b3373ffffffffffffffffffffffffffffffffffffffff167f62e78cea01bee320cd4e420270b5ea74000d11b0c9f74754ebdbfc544b05a25860405160405180910390a25b50565b6000600880549050905090565b6110963382611820565b61109f57600080fd5b6110aa8383836118b5565b505050565b6110ee828260006040519080825280601f01601f1916602001820160405280156110e85781602001600182028038833980820191505090505b50611165565b5050565b60006110fd8361122b565b821061110857600080fd5b600660008473ffffffffffffffffffffffffffffffffffffffff1673ffffffffffffffffffffffffffffffffffffffff168152602001908152602001600020828154811061115257fe5b9060005260206000200154905092915050565b505050565b60006111746112a4565b61117d57600080fd5b61118783836118d9565b611190826118fa565b6001905092915050565b6111b5838383604051806020016040528060008152506114d7565b505050565b60006111c461107f565b82106111cf57600080fd5b600882815481106111dc57fe5b90600052602060002001549050919050565b60006002600083815260200190815260200160002060009054906101000a900473ffffffffffffffffffffffffffffffffffffffff169050919050565b6000611274600460008473ffffffffffffffffffffffffffffffffffffffff1673ffffffffffffffffffffffffffffffffffffffff1681526020019081526020016000206119e2565b9050919050565b60008060009054906101000a900473ffffffffffffffffffffffffffffffffffffffff16905090565b60008060009054906101000a900473ffffffffffffffffffffffffffffffffffffffff1673ffffffffffffffffffffffffffffffffffffffff163373ffffffffffffffffffffffffffffffffffffffff1614905090565b606060108054600181600116156101000203166002900480601f0160208091040260200160405190810160405280929190818152602001828054600181600116156101000203166002900480156113935780601f1061136857610100808354040283529160200191611393565b820191906000526020600020905b81548152906001019060200180831161137657829003601f168201915b5050505050905090565b3373ffffffffffffffffffffffffffffffffffffffff168273ffffffffffffffffffffffffffffffffffffffff1614156113d657600080fd5b80600560003373ffffffffffffffffffffffffffffffffffffffff1673ffffffffffffffffffffffffffffffffffffffff16815260200190815260200160002060008473ffffffffffffffffffffffffffffffffffffffff1673ffffffffffffffffffffffffffffffffffffffff16815260200190815260200160002060006101000a81548160ff0219169083151502179055508173ffffffffffffffffffffffffffffffffffffffff163373ffffffffffffffffffffffffffffffffffffffff167f17307eab39ab6107e8899845ad3d59bd9653f200f220920489ca2b5937696c3183604051808215151515815260200191505060405180910390a35050565b6114e284848461108c565b6114ee848484846119f0565b6114f757600080fd5b50505050565b606061150882611bd9565b61151157600080fd5b601260008381526020019081526020016000208054600181600116156101000203166002900480601f0160208091040260200160405190810160405280929190818152602001828054600181600116156101000203166002900480156115b85780601f1061158d576101008083540402835291602001916115b8565b820191906000526020600020905b81548152906001019060200180831161159b57829003601f168201915b50505050509050919050565b6115cc6112a4565b6115d557600080fd5b600073ffffffffffffffffffffffffffffffffffffffff168173ffffffffffffffffffffffffffffffffffffffff16141561160f57600080fd5b8073ffffffffffffffffffffffffffffffffffffffff166000809054906101000a900473ffffffffffffffffffffffffffffffffffffffff1673ffffffffffffffffffffffffffffffffffffffff167f5c486528ec3e3f0ea91181cff8116f02bfa350e03b8b6f12e00765adbb5af85c60405160405180910390a3806000806101000a81548173ffffffffffffffffffffffffffffffffffffffff021916908373ffffffffffffffffffffffffffffffffffffffff16021790555050565b606060118054600181600116156101000203166002900480601f0160208091040260200160405190810160405280929190818152602001828054600181600116156101000203166002900480156117655780601f1061173a57610100808354040283529160200191611765565b820191906000526020600020905b81548152906001019060200180831161174857829003601f168201915b5050505050905090565b6000600560008473ffffffffffffffffffffffffffffffffffffffff1673ffffffffffffffffffffffffffffffffffffffff16815260200190815260200160002060008373ffffffffffffffffffffffffffffffffffffffff1673ffffffffffffffffffffffffffffffffffffffff16815260200190815260200160002060009054906101000a900460ff16905092915050565b61180b6112a4565b61181457600080fd5b61181d816115c4565b50565b60008061182c836111ee565b90508073ffffffffffffffffffffffffffffffffffffffff168473ffffffffffffffffffffffffffffffffffffffff16148061189b57508373ffffffffffffffffffffffffffffffffffffffff1661188384610db3565b73ffffffffffffffffffffffffffffffffffffffff16145b806118ac57506118ab818561176f565b5b91505092915050565b6118c0838383611c4b565b6118ca8382611e39565b6118d48282611fd7565b505050565b6118e3828261209e565b6118ed8282611fd7565b6118f6816121e1565b5050565b61190381611bd9565b61190c57600080fd5b6119b860118054600181600116156101000203166002900480601f0160208091040260200160405190810160405280929190818152602001828054600181600116156101000203166002900480156119a55780601f1061197a576101008083540402835291602001916119a5565b820191906000526020600020905b81548152906001019060200180831161198857829003601f168201915b50505050506119b38361222d565b61235a565b6012600083815260200190815260200160002090805190602001906119de9291906128ac565b5050565b600081600001549050919050565b6000611a118473ffffffffffffffffffffffffffffffffffffffff1661239e565b611a1e5760019050611bd1565b60008473ffffffffffffffffffffffffffffffffffffffff1663150b7a02338887876040518563ffffffff1660e01b8152600401808573ffffffffffffffffffffffffffffffffffffffff1673ffffffffffffffffffffffffffffffffffffffff1681526020018473ffffffffffffffffffffffffffffffffffffffff1673ffffffffffffffffffffffffffffffffffffffff16815260200183815260200180602001828103825283818151815260200191508051906020019080838360005b83811015611af9578082015181840152602081019050611ade565b50505050905090810190601f168015611b265780820380516001836020036101000a031916815260200191505b5095505050505050602060405180830381600087803b158015611b4857600080fd5b505af1158015611b5c573d6000803e3d6000fd5b505050506040513d6020811015611b7257600080fd5b8101908080519060200190929190505050905063150b7a0260e01b7bffffffffffffffffffffffffffffffffffffffffffffffffffffffff1916817bffffffffffffffffffffffffffffffffffffffffffffffffffffffff1916149150505b949350505050565b6000806002600084815260200190815260200160002060009054906101000a900473ffffffffffffffffffffffffffffffffffffffff169050600073ffffffffffffffffffffffffffffffffffffffff168173ffffffffffffffffffffffffffffffffffffffff161415915050919050565b8273ffffffffffffffffffffffffffffffffffffffff166002600083815260200190815260200160002060009054906101000a900473ffffffffffffffffffffffffffffffffffffffff1673ffffffffffffffffffffffffffffffffffffffff1614611cb657600080fd5b600073ffffffffffffffffffffffffffffffffffffffff168273ffffffffffffffffffffffffffffffffffffffff161415611cf057600080fd5b611cf9816123e9565b611d40600460008573ffffffffffffffffffffffffffffffffffffffff1673ffffffffffffffffffffffffffffffffffffffff1681526020019081526020016000206124a7565b611d87600460008473ffffffffffffffffffffffffffffffffffffffff1673ffffffffffffffffffffffffffffffffffffffff1681526020019081526020016000206124ca565b816002600083815260200190815260200160002060006101000a81548173ffffffffffffffffffffffffffffffffffffffff021916908373ffffffffffffffffffffffffffffffffffffffff160217905550808273ffffffffffffffffffffffffffffffffffffffff168473ffffffffffffffffffffffffffffffffffffffff167fddf252ad1be2c89b69c2b068fc378daa952ba7f163c4a11628f55a4df523b3ef60405160405180910390a4505050565b6000611e916001600660008673ffffffffffffffffffffffffffffffffffffffff1673ffffffffffffffffffffffffffffffffffffffff168152602001908152602001600020805490506124e090919063ffffffff16565b9050600060076000848152602001908152602001600020549050818114611f7e576000600660008673ffffffffffffffffffffffffffffffffffffffff1673ffffffffffffffffffffffffffffffffffffffff1681526020019081526020016000208381548110611efe57fe5b9060005260206000200154905080600660008773ffffffffffffffffffffffffffffffffffffffff1673ffffffffffffffffffffffffffffffffffffffff1681526020019081526020016000208381548110611f5657fe5b9060005260206000200181905550816007600083815260200190815260200160002081905550505b600660008573ffffffffffffffffffffffffffffffffffffffff1673ffffffffffffffffffffffffffffffffffffffff168152602001908152602001600020805480919060019003611fd0919061292c565b5050505050565b600660008373ffffffffffffffffffffffffffffffffffffffff1673ffffffffffffffffffffffffffffffffffffffff168152602001908152602001600020805490506007600083815260200190815260200160002081905550600660008373ffffffffffffffffffffffffffffffffffffffff1673ffffffffffffffffffffffffffffffffffffffff1681526020019081526020016000208190806001815401808255809150509060018203906000526020600020016000909192909190915055505050565b6120a781611bd9565b806120de5750600073ffffffffffffffffffffffffffffffffffffffff168273ffffffffffffffffffffffffffffffffffffffff16145b156120e857600080fd5b61212f600460008473ffffffffffffffffffffffffffffffffffffffff1673ffffffffffffffffffffffffffffffffffffffff1681526020019081526020016000206124ca565b816002600083815260200190815260200160002060006101000a81548173ffffffffffffffffffffffffffffffffffffffff021916908373ffffffffffffffffffffffffffffffffffffffff160217905550808273ffffffffffffffffffffffffffffffffffffffff16600073ffffffffffffffffffffffffffffffffffffffff167fddf252ad1be2c89b69c2b068fc378daa952ba7f163c4a11628f55a4df523b3ef60405160405180910390a45050565b6008805490506009600083815260200190815260200160002081905550600881908060018154018082558091505090600182039060005260206000200160009091929091909150555050565b60606000821415612275576040518060400160405280600181526020017f30000000000000000000000000000000000000000000000000000000000000008152509050612355565b600082905060005b6000821461229f578080600101915050600a828161229757fe5b04915061227d565b6060816040519080825280601f01601f1916602001820160405280156122d45781602001600182028038833980820191505090505b50905060006001830390505b6000861461234d57600a86816122f257fe5b0660300160f81b8282806001900393508151811061230c57fe5b60200101907effffffffffffffffffffffffffffffffffffffffffffffffffffffffffffff1916908160001a905350600a868161234557fe5b0495506122e0565b819450505050505b919050565b6060612396838360405180602001604052806000815250604051806020016040528060008152506040518060200160405280600081525061252a565b905092915050565b60008060007fc5d2460186f7233c927e7db2dcc703c0e500b653ca82273b7bfad8045d85a47060001b9050833f91508082141580156123e057506000801b8214155b92505050919050565b600073ffffffffffffffffffffffffffffffffffffffff166003600083815260200190815260200160002060009054906101000a900473ffffffffffffffffffffffffffffffffffffffff1673ffffffffffffffffffffffffffffffffffffffff16146124a45760006003600083815260200190815260200160002060006101000a81548173ffffffffffffffffffffffffffffffffffffffff021916908373ffffffffffffffffffffffffffffffffffffffff1602179055505b50565b6124bf600182600001546124e090919063ffffffff16565b816000018190555050565b6001816000016000828254019250508190555050565b600061252283836040518060400160405280601e81526020017f536166654d6174683a207375627472616374696f6e206f766572666c6f7700008152506127ec565b905092915050565b6060808690506060869050606086905060608690506060869050606081518351855187518951010101016040519080825280601f01601f1916602001820160405280156125865781602001600182028038833980820191505090505b509050606081905060008090506000809050600090505b885181101561260b578881815181106125b257fe5b602001015160f81c60f81b8383806001019450815181106125cf57fe5b60200101907effffffffffffffffffffffffffffffffffffffffffffffffffffffffffffff1916908160001a905350808060010191505061259d565b600090505b875181101561267e5787818151811061262557fe5b602001015160f81c60f81b83838060010194508151811061264257fe5b60200101907effffffffffffffffffffffffffffffffffffffffffffffffffffffffffffff1916908160001a9053508080600101915050612610565b600090505b86518110156126f15786818151811061269857fe5b602001015160f81c60f81b8383806001019450815181106126b557fe5b60200101907effffffffffffffffffffffffffffffffffffffffffffffffffffffffffffff1916908160001a9053508080600101915050612683565b600090505b85518110156127645785818151811061270b57fe5b602001015160f81c60f81b83838060010194508151811061272857fe5b60200101907effffffffffffffffffffffffffffffffffffffffffffffffffffffffffffff1916908160001a90535080806001019150506126f6565b600090505b84518110156127d75784818151811061277e57fe5b602001015160f81c60f81b83838060010194508151811061279b57fe5b60200101907effffffffffffffffffffffffffffffffffffffffffffffffffffffffffffff1916908160001a9053508080600101915050612769565b82995050505050505050505095945050505050565b6000838311158290612899576040517f08c379a00000000000000000000000000000000000000000000000000000000081526004018080602001828103825283818151815260200191508051906020019080838360005b8381101561285e578082015181840152602081019050612843565b50505050905090810190601f16801561288b5780820380516001836020036101000a031916815260200191505b509250505060405180910390fd5b5060008385039050809150509392505050565b828054600181600116156101000203166002900490600052602060002090601f016020900481019282601f106128ed57805160ff191683800117855561291b565b8280016001018555821561291b579182015b8281111561291a5782518255916020019190600101906128ff565b5b5090506129289190612958565b5090565b815481835581811115612953578183600052602060002091820191016129529190612958565b5b505050565b61297a91905b8082111561297657600081600090555060010161295e565b5090565b9056fe726571756972652074686520676976656e206164647265737320746f206e6f7420626520746865206f776e6572206f662074686520746f6b656e4964a265627a7a723158201a786ae67980041cf8e9e4790a525afe296f3f3dc950b335774ae006aa8c93d664736f6c6343000510003268747470733a2f2f73332d75732d776573742d322e616d617a6f6e6177732e636f6d2f756461636974792d626c6f636b636861696e2f63617073746f6e652f",
  "source": "pragma solidity ^0.5.0;\n\nimport 'openzeppelin-solidity/contracts/utils/Address.sol';\nimport 'openzeppelin-solidity/contracts/drafts/Counters.sol';\nimport 'openzeppelin-solidity/contracts/math/SafeMath.sol';\nimport 'openzeppelin-solidity/contracts/token/ERC721/IERC721Receiver.sol';\nimport \"./Oraclize.sol\";\n\ncontract Ownable {\n    //  TODO's\n    //  1) create a private '_owner' variable of type address with a public getter function\n    address private _owner;\n    /// Look up the address of the owner\n    function getOwner() public view returns (address) {\n        return _owner;\n    }\n    //  2) create an internal constructor that sets the _owner var to the creater of the contract\n    // Assign the contract to an owner\n    constructor () internal {\n        _owner = msg.sender;\n        emit TransferOwnership(address(0), _owner);\n    }\n    //  3) create an 'onlyOwner' modifier that throws if called by any account other than the owner.\n    /// Check if the calling address is the owner of the contract\n    function isOwner() public view returns (bool) {\n        return msg.sender == _owner;\n    }\n    /// Define a function modifier 'onlyOwner'\n    modifier onlyOwner() {\n        require(isOwner());\n        _;\n    }\n    //  4) fill out the transferOwnership function\n    //  5) create an event that emits anytime ownerShip is transfered (including in the constructor)\n    // Define an Event\n    event TransferOwnership(address indexed oldOwner, address indexed newOwner);\n\n    /// Define a public function to transfer ownership\n    function transferOwnership(address newOwner) public onlyOwner {\n        _transferOwnership(newOwner);\n    }\n\n    function _transferOwnership(address newOwner) public onlyOwner {\n        // TODO add functionality to transfer control of the contract to a newOwner.\n        // make sure the new owner is a real address\n        require(newOwner != address(0));\n        emit TransferOwnership(_owner, newOwner);\n        _owner = newOwner;\n    }\n}\n\n//  TODO's: Create a Pausable contract that inherits from the Ownable contract\ncontract Pausable is Ownable{\n    //  1) create a private '_paused' variable of type bool\n    bool private _paused;\n    //  2) create a public setter using the inherited onlyOwner modifier\n    function setPaused(bool mode) public onlyOwner {\n        require(_paused!=mode);\n        _paused = mode;\n        if(mode) emit Unpaused(msg.sender);\n        else emit Paused(msg.sender);\n    }\n    //  3) create an internal constructor that sets the _paused variable to false\n    constructor () internal {\n        _paused = false;\n    }\n    //  4) create 'whenNotPaused' & 'paused' modifier that throws in the appropriate situation\n    modifier whenNotPaused(){\n        require(!_paused);\n        _;\n    }\n\n    modifier paused(){\n        require(_paused);\n        _;\n    }\n    //  5) create a Paused & Unpaused event that emits the address that triggered the event\n    event Paused(address indexed account);\n    event Unpaused(address indexed account);\n}\n\n\ncontract ERC165 {\n    bytes4 private constant _INTERFACE_ID_ERC165 = 0x01ffc9a7;\n    /*\n     * 0x01ffc9a7 ===\n     *     bytes4(keccak256('supportsInterface(bytes4)'))\n     */\n\n    /**\n     * @dev a mapping of interface id to whether or not it's supported\n     */\n    mapping(bytes4 => bool) private _supportedInterfaces;\n\n    /**\n     * @dev A contract implementing SupportsInterfaceWithLookup\n     * implement ERC165 itself\n     */\n    constructor () internal {\n        _registerInterface(_INTERFACE_ID_ERC165);\n    }\n\n    /**\n     * @dev implement supportsInterface(bytes4) using a lookup table\n     */\n    function supportsInterface(bytes4 interfaceId) external view returns (bool) {\n        return _supportedInterfaces[interfaceId];\n    }\n\n    /**\n     * @dev internal method for registering an interface\n     */\n    function _registerInterface(bytes4 interfaceId) internal {\n        require(interfaceId != 0xffffffff);\n        _supportedInterfaces[interfaceId] = true;\n    }\n}\n\ncontract ERC721 is Pausable, ERC165 {\n\n    event Transfer(address indexed from, address indexed to, uint256 indexed tokenId);\n\n    event Approval(address indexed owner, address indexed approved, uint256 indexed tokenId);\n\n    event ApprovalForAll(address indexed owner, address indexed operator, bool approved);\n    \n    using SafeMath for uint256;\n    using Address for address;\n    using Counters for Counters.Counter;\n\n    // Equals to `bytes4(keccak256(\"onERC721Received(address,address,uint256,bytes)\"))`\n    // which can be also obtained as `IERC721Receiver(0).onERC721Received.selector`\n    bytes4 private constant _ERC721_RECEIVED = 0x150b7a02;\n\n    // Mapping from token ID to owner\n    mapping (uint256 => address) private _tokenOwner;\n\n    // Mapping from token ID to approved address\n    mapping (uint256 => address) private _tokenApprovals;\n\n    // Mapping from owner to number of owned token\n    // IMPORTANT: this mapping uses Counters lib which is used to protect overflow when incrementing/decrementing a uint\n    // use the following functions when interacting with Counters: increment(), decrement(), and current() to get the value\n    // see: https://github.com/OpenZeppelin/openzeppelin-solidity/blob/master/contracts/drafts/Counters.sol\n    mapping (address => Counters.Counter) private _ownedTokensCount;\n\n    // Mapping from owner to operator approvals\n    mapping (address => mapping (address => bool)) private _operatorApprovals;\n\n    bytes4 private constant _INTERFACE_ID_ERC721 = 0x80ac58cd;\n\n    constructor () public {\n        // register the supported interfaces to conform to ERC721 via ERC165\n        _registerInterface(_INTERFACE_ID_ERC721);\n    }\n\n    function balanceOf(address owner) public view returns (uint256) {\n        // TODO return the token balance of given address\n        // TIP: remember the functions to use for Counters. you can refresh yourself with the link above\n        return _ownedTokensCount[owner].current();\n    }\n\n    function ownerOf(uint256 tokenId) public view returns (address) {\n        // TODO return the owner of the given tokenId\n        return _tokenOwner[tokenId];\n    }\n\n    // @dev Approves another address to transfer the given token ID\n    function approve(address to, uint256 tokenId) public {\n        \n        // TODO require the given address to not be the owner of the tokenId\n        require(_tokenOwner[tokenId]!=to, \"require the given address to not be the owner of the tokenId\");\n        // TODO require the msg sender to be the owner of the contract or isApprovedForAll() to be true\n        /*require(isApprovedForAll(_tokenOwner[tokenId], msg.sender) || _tokenOwner[tokenId]==msg.sender,\n    \"require the msg sender to be the owner of the contract or isApprovedForAll() to be true\");*/\n        require(_isApprovedOrOwner(msg.sender, tokenId));\n        // TODO add 'to' address to token approvals\n        _tokenApprovals[tokenId] = to;\n        // TODO emit Approval Event\n        emit Approval(_tokenOwner[tokenId], to, tokenId);\n    }\n\n    function getApproved(uint256 tokenId) public view returns (address) {\n        // TODO return token approval if it exists\n        return _tokenApprovals[tokenId];\n    }\n\n    /**\n     * @dev Sets or unsets the approval of a given operator\n     * An operator is allowed to transfer all tokens of the sender on their behalf\n     * @param to operator address to set the approval\n     * @param approved representing the status of the approval to be set\n     */\n    function setApprovalForAll(address to, bool approved) public {\n        require(to != msg.sender);\n        _operatorApprovals[msg.sender][to] = approved;\n        emit ApprovalForAll(msg.sender, to, approved);\n    }\n\n    /**\n     * @dev Tells whether an operator is approved by a given owner\n     * @param owner owner address which you want to query the approval of\n     * @param operator operator address which you want to query the approval of\n     * @return bool whether the given operator is approved by the given owner\n     */\n    function isApprovedForAll(address owner, address operator) public view returns (bool) {\n        return _operatorApprovals[owner][operator];\n    }\n\n    function transferFrom(address from, address to, uint256 tokenId) public {\n        require(_isApprovedOrOwner(msg.sender, tokenId));\n\n        _transferFrom(from, to, tokenId);\n    }\n\n    function safeTransferFrom(address from, address to, uint256 tokenId) public {\n        safeTransferFrom(from, to, tokenId, \"\");\n    }\n\n    function safeTransferFrom(address from, address to, uint256 tokenId, bytes memory _data) public {\n        transferFrom(from, to, tokenId);\n        require(_checkOnERC721Received(from, to, tokenId, _data));\n    }\n\n    /**\n     * @dev Returns whether the specified token exists\n     * @param tokenId uint256 ID of the token to query the existence of\n     * @return bool whether the token exists\n     */\n    function _exists(uint256 tokenId) internal view returns (bool) {\n        address owner = _tokenOwner[tokenId];\n        return owner != address(0);\n    }\n\n    /**\n     * @dev Returns whether the given spender can transfer a given token ID\n     * @param spender address of the spender to query\n     * @param tokenId uint256 ID of the token to be transferred\n     * @return bool whether the msg.sender is approved for the given token ID,\n     * is an operator of the owner, or is the owner of the token\n     */\n    function _isApprovedOrOwner(address spender, uint256 tokenId) internal view returns (bool) {\n        address owner = ownerOf(tokenId);\n        return (spender == owner || getApproved(tokenId) == spender || isApprovedForAll(owner, spender));\n    }\n\n    // @dev Internal function to mint a new token\n    // TIP: remember the functions to use for Counters. you can refresh yourself with the link above\n    function _mint(address to, uint256 tokenId) internal {\n\n        // TODO revert if given tokenId already exists or given address is invalid\n        if(_exists(tokenId) || to==address(0)) revert();\n        // TODO mint tokenId to given address & increase token count of owner\n        _ownedTokensCount[to].increment();\n        _tokenOwner[tokenId] = to;\n        // TODO emit Transfer event\n        emit Transfer(address(0), to, tokenId);\n    }\n\n    // @dev Internal function to transfer ownership of a given token ID to another address.\n    // TIP: remember the functions to use for Counters. you can refresh yourself with the link above\n    function _transferFrom(address from, address to, uint256 tokenId) internal {\n\n        // TODO: require from address is the owner of the given token\n        require(_tokenOwner[tokenId]==from);\n        // TODO: require token is being transfered to valid address\n        require(to != address(0));\n        // TODO: clear approval\n        _clearApproval(tokenId);\n        // TODO: update token counts & transfer ownership of the token ID \n        _ownedTokensCount[from].decrement();\n        _ownedTokensCount[to].increment();\n        _tokenOwner[tokenId] = to;\n        // TODO: emit correct event\n        emit Transfer(from, to, tokenId);\n    }\n\n    /**\n     * @dev Internal function to invoke `onERC721Received` on a target address\n     * The call is not executed if the target address is not a contract\n     * @param from address representing the previous owner of the given token ID\n     * @param to target address that will receive the tokens\n     * @param tokenId uint256 ID of the token to be transferred\n     * @param _data bytes optional data to send along with the call\n     * @return bool whether the call correctly returned the expected magic value\n     */\n    function _checkOnERC721Received(address from, address to, uint256 tokenId, bytes memory _data)\n        internal returns (bool)\n    {\n        if (!to.isContract()) {\n            return true;\n        }\n\n        bytes4 retval = IERC721Receiver(to).onERC721Received(msg.sender, from, tokenId, _data);\n        return (retval == _ERC721_RECEIVED);\n    }\n\n    // @dev Private function to clear current approval of a given token ID\n    function _clearApproval(uint256 tokenId) private {\n        if (_tokenApprovals[tokenId] != address(0)) {\n            _tokenApprovals[tokenId] = address(0);\n        }\n    }\n}\n\ncontract ERC721Enumerable is ERC165, ERC721 {\n    // Mapping from owner to list of owned token IDs\n    mapping(address => uint256[]) private _ownedTokens;\n\n    // Mapping from token ID to index of the owner tokens list\n    mapping(uint256 => uint256) private _ownedTokensIndex;\n\n    // Array with all token ids, used for enumeration\n    uint256[] private _allTokens;\n\n    // Mapping from token id to position in the allTokens array\n    mapping(uint256 => uint256) private _allTokensIndex;\n\n    bytes4 private constant _INTERFACE_ID_ERC721_ENUMERABLE = 0x780e9d63;\n    /*\n     * 0x780e9d63 ===\n     *     bytes4(keccak256('totalSupply()')) ^\n     *     bytes4(keccak256('tokenOfOwnerByIndex(address,uint256)')) ^\n     *     bytes4(keccak256('tokenByIndex(uint256)'))\n     */\n\n    /**\n     * @dev Constructor function\n     */\n    constructor () public {\n        // register the supported interface to conform to ERC721Enumerable via ERC165\n        _registerInterface(_INTERFACE_ID_ERC721_ENUMERABLE);\n    }\n\n    /**\n     * @dev Gets the token ID at a given index of the tokens list of the requested owner\n     * @param owner address owning the tokens list to be accessed\n     * @param index uint256 representing the index to be accessed of the requested tokens list\n     * @return uint256 token ID at the given index of the tokens list owned by the requested address\n     */\n    function tokenOfOwnerByIndex(address owner, uint256 index) public view returns (uint256) {\n        require(index < balanceOf(owner));\n        return _ownedTokens[owner][index];\n    }\n\n    /**\n     * @dev Gets the total amount of tokens stored by the contract\n     * @return uint256 representing the total amount of tokens\n     */\n    function totalSupply() public view returns (uint256) {\n        return _allTokens.length;\n    }\n\n    /**\n     * @dev Gets the token ID at a given index of all the tokens in this contract\n     * Reverts if the index is greater or equal to the total number of tokens\n     * @param index uint256 representing the index to be accessed of the tokens list\n     * @return uint256 token ID at the given index of the tokens list\n     */\n    function tokenByIndex(uint256 index) public view returns (uint256) {\n        require(index < totalSupply());\n        return _allTokens[index];\n    }\n\n    /**\n     * @dev Internal function to transfer ownership of a given token ID to another address.\n     * As opposed to transferFrom, this imposes no restrictions on msg.sender.\n     * @param from current owner of the token\n     * @param to address to receive the ownership of the given token ID\n     * @param tokenId uint256 ID of the token to be transferred\n     */\n    function _transferFrom(address from, address to, uint256 tokenId) internal {\n        super._transferFrom(from, to, tokenId);\n\n        _removeTokenFromOwnerEnumeration(from, tokenId);\n\n        _addTokenToOwnerEnumeration(to, tokenId);\n    }\n\n    /**\n     * @dev Internal function to mint a new token\n     * Reverts if the given token ID already exists\n     * @param to address the beneficiary that will own the minted token\n     * @param tokenId uint256 ID of the token to be minted\n     */\n    function _mint(address to, uint256 tokenId) internal {\n        super._mint(to, tokenId);\n\n        _addTokenToOwnerEnumeration(to, tokenId);\n\n        _addTokenToAllTokensEnumeration(tokenId);\n    }\n\n    /**\n     * @dev Gets the list of token IDs of the requested owner\n     * @param owner address owning the tokens\n     * @return uint256[] List of token IDs owned by the requested address\n     */\n    function _tokensOfOwner(address owner) internal view returns (uint256[] storage) {\n        return _ownedTokens[owner];\n    }\n\n    /**\n     * @dev Private function to add a token to this extension's ownership-tracking data structures.\n     * @param to address representing the new owner of the given token ID\n     * @param tokenId uint256 ID of the token to be added to the tokens list of the given address\n     */\n    function _addTokenToOwnerEnumeration(address to, uint256 tokenId) private {\n        _ownedTokensIndex[tokenId] = _ownedTokens[to].length;\n        _ownedTokens[to].push(tokenId);\n    }\n\n    /**\n     * @dev Private function to add a token to this extension's token tracking data structures.\n     * @param tokenId uint256 ID of the token to be added to the tokens list\n     */\n    function _addTokenToAllTokensEnumeration(uint256 tokenId) private {\n        _allTokensIndex[tokenId] = _allTokens.length;\n        _allTokens.push(tokenId);\n    }\n\n    /**\n     * @dev Private function to remove a token from this extension's ownership-tracking data structures. Note that\n     * while the token is not assigned a new owner, the _ownedTokensIndex mapping is _not_ updated: this allows for\n     * gas optimizations e.g. when performing a transfer operation (avoiding double writes).\n     * This has O(1) time complexity, but alters the order of the _ownedTokens array.\n     * @param from address representing the previous owner of the given token ID\n     * @param tokenId uint256 ID of the token to be removed from the tokens list of the given address\n     */\n    function _removeTokenFromOwnerEnumeration(address from, uint256 tokenId) private {\n        // To prevent a gap in from's tokens array, we store the last token in the index of the token to delete, and\n        // then delete the last slot (swap and pop).\n\n        uint256 lastTokenIndex = _ownedTokens[from].length.sub(1);\n        uint256 tokenIndex = _ownedTokensIndex[tokenId];\n\n        // When the token to delete is the last token, the swap operation is unnecessary\n        if (tokenIndex != lastTokenIndex) {\n            uint256 lastTokenId = _ownedTokens[from][lastTokenIndex];\n\n            _ownedTokens[from][tokenIndex] = lastTokenId; // Move the last token to the slot of the to-delete token\n            _ownedTokensIndex[lastTokenId] = tokenIndex; // Update the moved token's index\n        }\n\n        // This also deletes the contents at the last position of the array\n        _ownedTokens[from].length--;\n\n        // Note that _ownedTokensIndex[tokenId] hasn't been cleared: it still points to the old slot (now occupied by\n        // lastTokenId, or just over the end of the array if the token was the last one).\n    }\n\n    /**\n     * @dev Private function to remove a token from this extension's token tracking data structures.\n     * This has O(1) time complexity, but alters the order of the _allTokens array.\n     * @param tokenId uint256 ID of the token to be removed from the tokens list\n     */\n    function _removeTokenFromAllTokensEnumeration(uint256 tokenId) private {\n        // To prevent a gap in the tokens array, we store the last token in the index of the token to delete, and\n        // then delete the last slot (swap and pop).\n\n        uint256 lastTokenIndex = _allTokens.length.sub(1);\n        uint256 tokenIndex = _allTokensIndex[tokenId];\n\n        // When the token to delete is the last token, the swap operation is unnecessary. However, since this occurs so\n        // rarely (when the last minted token is burnt) that we still do the swap here to avoid the gas cost of adding\n        // an 'if' statement (like in _removeTokenFromOwnerEnumeration)\n        uint256 lastTokenId = _allTokens[lastTokenIndex];\n\n        _allTokens[tokenIndex] = lastTokenId; // Move the last token to the slot of the to-delete token\n        _allTokensIndex[lastTokenId] = tokenIndex; // Update the moved token's index\n\n        // This also deletes the contents at the last position of the array\n        _allTokens.length--;\n        _allTokensIndex[tokenId] = 0;\n    }\n}\n\ncontract ERC721Metadata is ERC721Enumerable, usingOraclize {\n    \n    // TODO: Create private vars for token _name, _symbol, and _baseTokenURI (string)\n    string private _name;\n    string private _symbol;\n    string private _baseTokenURI;\n\n    // TODO: create private mapping of tokenId's to token uri's called '_tokenURIs'\n    mapping( uint256 => string ) private _tokenURIs;\n\n    bytes4 private constant _INTERFACE_ID_ERC721_METADATA = 0x5b5e139f;\n    /*\n     * 0x5b5e139f ===\n     *     bytes4(keccak256('name()')) ^\n     *     bytes4(keccak256('symbol()')) ^\n     *     bytes4(keccak256('tokenURI(uint256)'))\n     */\n\n\n    constructor (string memory name, string memory symbol, string memory baseTokenURI) public {\n        // TODO: set instance var values\n        _name = name;\n        _symbol = symbol;\n        _baseTokenURI = baseTokenURI;\n        _registerInterface(_INTERFACE_ID_ERC721_METADATA);\n    }\n\n    // TODO: create external getter functions for name, symbol, and baseTokenURI\n    function name() external view returns (string memory) {\n        return _name;\n    }\n\n    function symbol() external view returns (string memory) {\n        return _symbol;\n    }\n\n    function baseTokenURI() external view returns (string memory) {\n        return _baseTokenURI;\n    }\n\n    function tokenURI(uint256 tokenId) external view returns (string memory) {\n        require(_exists(tokenId));\n        return _tokenURIs[tokenId];\n    }\n\n\n    // TODO: Create an internal function to set the tokenURI of a specified tokenId\n    // It should be the _baseTokenURI + the tokenId in string form\n    // TIP #1: use strConcat() from the imported oraclizeAPI lib to set the complete token URI\n    // TIP #2: you can also use uint2str() to convert a uint to a string\n        // see https://github.com/oraclize/ethereum-api/blob/master/oraclizeAPI_0.5.sol for strConcat()\n    // require the token exists before setting\n    function setTokenURI(uint256 tokenId) internal{\n        require(_exists(tokenId));\n        _tokenURIs[tokenId] = strConcat(_baseTokenURI, uint2str(tokenId));\n    }\n}\n\n//  TODO's: Create CustomERC721Token contract that inherits from the ERC721Metadata contract. You can name this contract as you please\n//  1) Pass in appropriate values for the inherited ERC721Metadata contract\n//      - make the base token uri: https://s3-us-west-2.amazonaws.com/udacity-blockchain/capstone/\n//  2) create a public mint() that does the following:\n//      -can only be executed by the contract owner\n//      -takes in a 'to' address, tokenId, and tokenURI as parameters\n//      -returns a true boolean upon completion of the function\n//      -calls the superclass mint and setTokenURI functions\n\ncontract CustomERC721Token is ERC721Metadata{\n\n    //  1) Pass in appropriate values for the inherited ERC721Metadata contract\n    //      - make the base token uri: https://s3-us-west-2.amazonaws.com/udacity-blockchain/capstone/\n    constructor () public ERC721Metadata(\"starToken\",\"strTkn\",\"https://s3-us-west-2.amazonaws.com/udacity-blockchain/capstone/\") {\n\n    }\n\n    //  2) create a public mint() that does the following:\n    //      -can only be executed by the contract owner\n    //      -takes in a 'to' address, tokenId, and tokenURI as parameters\n    //      -returns a true boolean upon completion of the function\n    //      -calls the superclass mint and setTokenURI functions\n    function mint(address to, uint256 tokenId) public onlyOwner returns(bool){\n        super._mint(to, tokenId);\n        super.setTokenURI(tokenId);\n        return true;\n    }\n\n}\n",
  "sourcePath": "/Users/federico/Documents/Blockchain/udacity/Blockchain-Capstone/eth-contracts/contracts/ERC721Mintable.sol",
  "compiler": {
    "name": "solc",
    "version": "0.5.16+commit.9c3226ce.Emscripten.clang"
  },
  "schemaVersion": "3.4.10",
  "updatedAt": "2022-12-19T12:11:14.840Z",
  "devdoc": {
    "methods": {
      "isApprovedForAll(address,address)": {
        "details": "Tells whether an operator is approved by a given owner",
        "params": {
          "operator": "operator address which you want to query the approval of",
          "owner": "owner address which you want to query the approval of"
        },
        "return": "bool whether the given operator is approved by the given owner"
      },
      "setApprovalForAll(address,bool)": {
        "details": "Sets or unsets the approval of a given operator An operator is allowed to transfer all tokens of the sender on their behalf",
        "params": {
          "approved": "representing the status of the approval to be set",
          "to": "operator address to set the approval"
        }
      },
      "supportsInterface(bytes4)": {
        "details": "implement supportsInterface(bytes4) using a lookup table"
      },
      "tokenByIndex(uint256)": {
        "details": "Gets the token ID at a given index of all the tokens in this contract Reverts if the index is greater or equal to the total number of tokens",
        "params": {
          "index": "uint256 representing the index to be accessed of the tokens list"
        },
        "return": "uint256 token ID at the given index of the tokens list"
      },
      "tokenOfOwnerByIndex(address,uint256)": {
        "details": "Gets the token ID at a given index of the tokens list of the requested owner",
        "params": {
          "index": "uint256 representing the index to be accessed of the requested tokens list",
          "owner": "address owning the tokens list to be accessed"
        },
        "return": "uint256 token ID at the given index of the tokens list owned by the requested address"
      },
      "totalSupply()": {
        "details": "Gets the total amount of tokens stored by the contract",
        "return": "uint256 representing the total amount of tokens"
      }
    }
  },
  "userdoc": {
    "methods": {
      "getOwner()": {
        "notice": "Look up the address of the owner"
      },
      "isOwner()": {
        "notice": "Check if the calling address is the owner of the contract"
      },
      "transferOwnership(address)": {
        "notice": "Define a public function to transfer ownership"
      }
    }
  }
}