{
  "contractName": "SolnSquareVerifier",
  "abi": [
    {
      "inputs": [
        {
          "internalType": "address",
          "name": "verifierAddress",
          "type": "address"
        },
        {
          "internalType": "string",
          "name": "name",
          "type": "string"
        },
        {
          "internalType": "string",
          "name": "symbol",
          "type": "string"
        },
        {
          "internalType": "string",
          "name": "baseTokenURI",
          "type": "string"
        }
      ],
      "payable": false,
      "stateMutability": "nonpayable",
      "type": "constructor"
    },
    {
      "anonymous": false,
      "inputs": [
        {
          "indexed": true,
          "internalType": "address",
          "name": "owner",
          "type": "address"
        },
        {
          "indexed": true,
          "internalType": "address",
          "name": "approved",
          "type": "address"
        },
        {
          "indexed": true,
          "internalType": "uint256",
          "name": "tokenId",
          "type": "uint256"
        }
      ],
      "name": "Approval",
      "type": "event"
    },
    {
      "anonymous": false,
      "inputs": [
        {
          "indexed": true,
          "internalType": "address",
          "name": "owner",
          "type": "address"
        },
        {
          "indexed": true,
          "internalType": "address",
          "name": "operator",
          "type": "address"
        },
        {
          "indexed": false,
          "internalType": "bool",
          "name": "approved",
          "type": "bool"
        }
      ],
      "name": "ApprovalForAll",
      "type": "event"
    },
    {
      "anonymous": false,
      "inputs": [
        {
          "indexed": true,
          "internalType": "address",
          "name": "account",
          "type": "address"
        }
      ],
      "name": "Paused",
      "type": "event"
    },
    {
      "anonymous": false,
      "inputs": [
        {
          "indexed": false,
          "internalType": "address",
          "name": "owner",
          "type": "address"
        }
      ],
      "name": "SolutionAdded",
      "type": "event"
    },
    {
      "anonymous": false,
      "inputs": [
        {
          "indexed": true,
          "internalType": "address",
          "name": "from",
          "type": "address"
        },
        {
          "indexed": true,
          "internalType": "address",
          "name": "to",
          "type": "address"
        },
        {
          "indexed": true,
          "internalType": "uint256",
          "name": "tokenId",
          "type": "uint256"
        }
      ],
      "name": "Transfer",
      "type": "event"
    },
    {
      "anonymous": false,
      "inputs": [
        {
          "indexed": true,
          "internalType": "address",
          "name": "oldOwner",
          "type": "address"
        },
        {
          "indexed": true,
          "internalType": "address",
          "name": "newOwner",
          "type": "address"
        }
      ],
      "name": "TransferOwnership",
      "type": "event"
    },
    {
      "anonymous": false,
      "inputs": [
        {
          "indexed": true,
          "internalType": "address",
          "name": "account",
          "type": "address"
        }
      ],
      "name": "Unpaused",
      "type": "event"
    },
    {
      "constant": false,
      "inputs": [
        {
          "internalType": "bytes32",
          "name": "_myid",
          "type": "bytes32"
        },
        {
          "internalType": "string",
          "name": "_result",
          "type": "string"
        }
      ],
      "name": "__callback",
      "outputs": [],
      "payable": false,
      "stateMutability": "nonpayable",
      "type": "function"
    },
    {
      "constant": false,
      "inputs": [
        {
          "internalType": "bytes32",
          "name": "_myid",
          "type": "bytes32"
        },
        {
          "internalType": "string",
          "name": "_result",
          "type": "string"
        },
        {
          "internalType": "bytes",
          "name": "_proof",
          "type": "bytes"
        }
      ],
      "name": "__callback",
      "outputs": [],
      "payable": false,
      "stateMutability": "nonpayable",
      "type": "function"
    },
    {
      "constant": false,
      "inputs": [
        {
          "internalType": "address",
          "name": "newOwner",
          "type": "address"
        }
      ],
      "name": "_transferOwnership",
      "outputs": [],
      "payable": false,
      "stateMutability": "nonpayable",
      "type": "function"
    },
    {
      "constant": false,
      "inputs": [
        {
          "internalType": "address",
          "name": "to",
          "type": "address"
        },
        {
          "internalType": "uint256",
          "name": "tokenId",
          "type": "uint256"
        }
      ],
      "name": "approve",
      "outputs": [],
      "payable": false,
      "stateMutability": "nonpayable",
      "type": "function"
    },
    {
      "constant": true,
      "inputs": [
        {
          "internalType": "address",
          "name": "owner",
          "type": "address"
        }
      ],
      "name": "balanceOf",
      "outputs": [
        {
          "internalType": "uint256",
          "name": "",
          "type": "uint256"
        }
      ],
      "payable": false,
      "stateMutability": "view",
      "type": "function"
    },
    {
      "constant": true,
      "inputs": [],
      "name": "baseTokenURI",
      "outputs": [
        {
          "internalType": "string",
          "name": "",
          "type": "string"
        }
      ],
      "payable": false,
      "stateMutability": "view",
      "type": "function"
    },
    {
      "constant": true,
      "inputs": [
        {
          "internalType": "uint256",
          "name": "tokenId",
          "type": "uint256"
        }
      ],
      "name": "getApproved",
      "outputs": [
        {
          "internalType": "address",
          "name": "",
          "type": "address"
        }
      ],
      "payable": false,
      "stateMutability": "view",
      "type": "function"
    },
    {
      "constant": true,
      "inputs": [],
      "name": "getOwner",
      "outputs": [
        {
          "internalType": "address",
          "name": "",
          "type": "address"
        }
      ],
      "payable": false,
      "stateMutability": "view",
      "type": "function"
    },
    {
      "constant": true,
      "inputs": [
        {
          "internalType": "address",
          "name": "owner",
          "type": "address"
        },
        {
          "internalType": "address",
          "name": "operator",
          "type": "address"
        }
      ],
      "name": "isApprovedForAll",
      "outputs": [
        {
          "internalType": "bool",
          "name": "",
          "type": "bool"
        }
      ],
      "payable": false,
      "stateMutability": "view",
      "type": "function"
    },
    {
      "constant": false,
      "inputs": [
        {
          "internalType": "address",
          "name": "to",
          "type": "address"
        },
        {
          "internalType": "uint256",
          "name": "tokenId",
          "type": "uint256"
        }
      ],
      "name": "mint",
      "outputs": [
        {
          "internalType": "bool",
          "name": "",
          "type": "bool"
        }
      ],
      "payable": false,
      "stateMutability": "nonpayable",
      "type": "function"
    },
    {
      "constant": true,
      "inputs": [],
      "name": "name",
      "outputs": [
        {
          "internalType": "string",
          "name": "",
          "type": "string"
        }
      ],
      "payable": false,
      "stateMutability": "view",
      "type": "function"
    },
    {
      "constant": true,
      "inputs": [
        {
          "internalType": "uint256",
          "name": "tokenId",
          "type": "uint256"
        }
      ],
      "name": "ownerOf",
      "outputs": [
        {
          "internalType": "address",
          "name": "",
          "type": "address"
        }
      ],
      "payable": false,
      "stateMutability": "view",
      "type": "function"
    },
    {
      "constant": false,
      "inputs": [
        {
          "internalType": "address",
          "name": "from",
          "type": "address"
        },
        {
          "internalType": "address",
          "name": "to",
          "type": "address"
        },
        {
          "internalType": "uint256",
          "name": "tokenId",
          "type": "uint256"
        }
      ],
      "name": "safeTransferFrom",
      "outputs": [],
      "payable": false,
      "stateMutability": "nonpayable",
      "type": "function"
    },
    {
      "constant": false,
      "inputs": [
        {
          "internalType": "address",
          "name": "from",
          "type": "address"
        },
        {
          "internalType": "address",
          "name": "to",
          "type": "address"
        },
        {
          "internalType": "uint256",
          "name": "tokenId",
          "type": "uint256"
        },
        {
          "internalType": "bytes",
          "name": "_data",
          "type": "bytes"
        }
      ],
      "name": "safeTransferFrom",
      "outputs": [],
      "payable": false,
      "stateMutability": "nonpayable",
      "type": "function"
    },
    {
      "constant": false,
      "inputs": [
        {
          "internalType": "address",
          "name": "to",
          "type": "address"
        },
        {
          "internalType": "bool",
          "name": "approved",
          "type": "bool"
        }
      ],
      "name": "setApprovalForAll",
      "outputs": [],
      "payable": false,
      "stateMutability": "nonpayable",
      "type": "function"
    },
    {
      "constant": false,
      "inputs": [
        {
          "internalType": "bool",
          "name": "mode",
          "type": "bool"
        }
      ],
      "name": "setPaused",
      "outputs": [],
      "payable": false,
      "stateMutability": "nonpayable",
      "type": "function"
    },
    {
      "constant": true,
      "inputs": [
        {
          "internalType": "bytes4",
          "name": "interfaceId",
          "type": "bytes4"
        }
      ],
      "name": "supportsInterface",
      "outputs": [
        {
          "internalType": "bool",
          "name": "",
          "type": "bool"
        }
      ],
      "payable": false,
      "stateMutability": "view",
      "type": "function"
    },
    {
      "constant": true,
      "inputs": [],
      "name": "symbol",
      "outputs": [
        {
          "internalType": "string",
          "name": "",
          "type": "string"
        }
      ],
      "payable": false,
      "stateMutability": "view",
      "type": "function"
    },
    {
      "constant": true,
      "inputs": [
        {
          "internalType": "uint256",
          "name": "index",
          "type": "uint256"
        }
      ],
      "name": "tokenByIndex",
      "outputs": [
        {
          "internalType": "uint256",
          "name": "",
          "type": "uint256"
        }
      ],
      "payable": false,
      "stateMutability": "view",
      "type": "function"
    },
    {
      "constant": true,
      "inputs": [
        {
          "internalType": "address",
          "name": "owner",
          "type": "address"
        },
        {
          "internalType": "uint256",
          "name": "index",
          "type": "uint256"
        }
      ],
      "name": "tokenOfOwnerByIndex",
      "outputs": [
        {
          "internalType": "uint256",
          "name": "",
          "type": "uint256"
        }
      ],
      "payable": false,
      "stateMutability": "view",
      "type": "function"
    },
    {
      "constant": true,
      "inputs": [
        {
          "internalType": "uint256",
          "name": "tokenId",
          "type": "uint256"
        }
      ],
      "name": "tokenURI",
      "outputs": [
        {
          "internalType": "string",
          "name": "",
          "type": "string"
        }
      ],
      "payable": false,
      "stateMutability": "view",
      "type": "function"
    },
    {
      "constant": true,
      "inputs": [],
      "name": "totalSupply",
      "outputs": [
        {
          "internalType": "uint256",
          "name": "",
          "type": "uint256"
        }
      ],
      "payable": false,
      "stateMutability": "view",
      "type": "function"
    },
    {
      "constant": false,
      "inputs": [
        {
          "internalType": "address",
          "name": "from",
          "type": "address"
        },
        {
          "internalType": "address",
          "name": "to",
          "type": "address"
        },
        {
          "internalType": "uint256",
          "name": "tokenId",
          "type": "uint256"
        }
      ],
      "name": "transferFrom",
      "outputs": [],
      "payable": false,
      "stateMutability": "nonpayable",
      "type": "function"
    },
    {
      "constant": false,
      "inputs": [
        {
          "internalType": "address",
          "name": "newOwner",
          "type": "address"
        }
      ],
      "name": "transferOwnership",
      "outputs": [],
      "payable": false,
      "stateMutability": "nonpayable",
      "type": "function"
    },
    {
      "constant": false,
      "inputs": [
        {
          "internalType": "uint256[2]",
          "name": "a",
          "type": "uint256[2]"
        },
        {
          "internalType": "uint256[2]",
          "name": "a_p",
          "type": "uint256[2]"
        },
        {
          "internalType": "uint256[2][2]",
          "name": "b",
          "type": "uint256[2][2]"
        },
        {
          "internalType": "uint256[2]",
          "name": "b_p",
          "type": "uint256[2]"
        },
        {
          "internalType": "uint256[2]",
          "name": "c",
          "type": "uint256[2]"
        },
        {
          "internalType": "uint256[2]",
          "name": "c_p",
          "type": "uint256[2]"
        },
        {
          "internalType": "uint256[2]",
          "name": "h",
          "type": "uint256[2]"
        },
        {
          "internalType": "uint256[2]",
          "name": "k",
          "type": "uint256[2]"
        },
        {
          "internalType": "uint256[2]",
          "name": "input",
          "type": "uint256[2]"
        },
        {
          "internalType": "address",
          "name": "to",
          "type": "address"
        },
        {
          "internalType": "uint256",
          "name": "tokenId",
          "type": "uint256"
        }
      ],
      "name": "addSolution",
      "outputs": [
        {
          "internalType": "bool",
          "name": "",
          "type": "bool"
        }
      ],
      "payable": false,
      "stateMutability": "nonpayable",
      "type": "function"
    },
    {
      "constant": false,
      "inputs": [
        {
          "internalType": "bytes32",
          "name": "key",
          "type": "bytes32"
        },
        {
          "internalType": "address",
          "name": "to",
          "type": "address"
        },
        {
          "internalType": "uint256",
          "name": "tokenId",
          "type": "uint256"
        }
      ],
      "name": "mintVerified",
      "outputs": [
        {
          "internalType": "bool",
          "name": "",
          "type": "bool"
        }
      ],
      "payable": false,
      "stateMutability": "nonpayable",
      "type": "function"
    }
  ],
  "bytecode": "0x60806040523480156200001157600080fd5b506040516200443e3803806200443e833981810160405260808110156200003757600080fd5b8101908080519060200190929190805160405193929190846401000000008211156200006257600080fd5b838201915060208201858111156200007957600080fd5b82518660018202830111640100000000821117156200009757600080fd5b8083526020830192505050908051906020019080838360005b83811015620000cd578082015181840152602081019050620000b0565b50505050905090810190601f168015620000fb5780820380516001836020036101000a031916815260200191505b50604052602001805160405193929190846401000000008211156200011f57600080fd5b838201915060208201858111156200013657600080fd5b82518660018202830111640100000000821117156200015457600080fd5b8083526020830192505050908051906020019080838360005b838110156200018a5780820151818401526020810190506200016d565b50505050905090810190601f168015620001b85780820380516001836020036101000a031916815260200191505b5060405260200180516040519392919084640100000000821115620001dc57600080fd5b83820191506020820185811115620001f357600080fd5b82518660018202830111640100000000821117156200021157600080fd5b8083526020830192505050908051906020019080838360005b83811015620002475780820151818401526020810190506200022a565b50505050905090810190601f168015620002755780820380516001836020036101000a031916815260200191505b50604052505050828282828282336000806101000a81548173ffffffffffffffffffffffffffffffffffffffff021916908373ffffffffffffffffffffffffffffffffffffffff1602179055506000809054906101000a900473ffffffffffffffffffffffffffffffffffffffff1673ffffffffffffffffffffffffffffffffffffffff16600073ffffffffffffffffffffffffffffffffffffffff167f5c486528ec3e3f0ea91181cff8116f02bfa350e03b8b6f12e00765adbb5af85c60405160405180910390a360008060146101000a81548160ff021916908315150217905550620003706301ffc9a760e01b6200045460201b60201c565b620003886380ac58cd60e01b6200045460201b60201c565b620003a063780e9d6360e01b6200045460201b60201c565b82600f9080519060200190620003b8929190620004f4565b508160109080519060200190620003d1929190620004f4565b508060119080519060200190620003ea929190620004f4565b5062000403635b5e139f60e01b6200045460201b60201c565b50505050505083601360006101000a81548173ffffffffffffffffffffffffffffffffffffffff021916908373ffffffffffffffffffffffffffffffffffffffff16021790555050505050620005a3565b63ffffffff60e01b817bffffffffffffffffffffffffffffffffffffffffffffffffffffffff191614156200048857600080fd5b6001806000837bffffffffffffffffffffffffffffffffffffffffffffffffffffffff19167bffffffffffffffffffffffffffffffffffffffffffffffffffffffff1916815260200190815260200160002060006101000a81548160ff02191690831515021790555050565b828054600181600116156101000203166002900490600052602060002090601f016020900481019282601f106200053757805160ff191683800117855562000568565b8280016001018555821562000568579182015b82811115620005675782518255916020019190600101906200054a565b5b5090506200057791906200057b565b5090565b620005a091905b808211156200059c57600081600090555060010162000582565b5090565b90565b613e8b80620005b36000396000f3fe608060405234801561001057600080fd5b506004361061018e5760003560e01c80634f6ccce7116100de578063a22cb46511610097578063d29d44ee11610071578063d29d44ee14610e73578063d547cfb714610eb7578063e985e9c514610f3a578063f2fde38b14610fb65761018e565b8063a22cb46514610c77578063b88d4fde14610cc7578063c87b56dd14610dcc5761018e565b80634f6ccce714610a325780636352211e14610a745780636e6bdfd014610ae257806370a0823114610b52578063893d20e814610baa57806395d89b4114610bf45761018e565b80631cbb57331161014b5780632f745c59116101255780632f745c59146107a057806338bbfa501461080257806340c10f191461095e57806342842e0e146109c45761018e565b80631cbb57331461038557806323b872dd1461066d57806327dc297e146106db5761018e565b806301ffc9a71461019357806306fdde03146101f8578063081812fc1461027b578063095ea7b3146102e957806316c38b3c1461033757806318160ddd14610367575b600080fd5b6101de600480360360208110156101a957600080fd5b8101908080357bffffffffffffffffffffffffffffffffffffffffffffffffffffffff19169060200190929190505050610ffa565b604051808215151515815260200191505060405180910390f35b610200611062565b6040518080602001828103825283818151815260200191508051906020019080838360005b83811015610240578082015181840152602081019050610225565b50505050905090810190601f16801561026d5780820380516001836020036101000a031916815260200191505b509250505060405180910390f35b6102a76004803603602081101561029157600080fd5b8101908080359060200190929190505050611104565b604051808273ffffffffffffffffffffffffffffffffffffffff1673ffffffffffffffffffffffffffffffffffffffff16815260200191505060405180910390f35b610335600480360360408110156102ff57600080fd5b81019080803573ffffffffffffffffffffffffffffffffffffffff169060200190929190803590602001909291905050506111bc565b005b6103656004803603602081101561034d57600080fd5b810190808035151590602001909291905050506113e5565b005b61036f611559565b6040518082815260200191505060405180910390f35b61065360048036036102c081101561039c57600080fd5b8101908080604001906002806020026040519081016040528092919082600260200280828437600081840152601f19601f820116905080830192505050505050919291929080604001906002806020026040519081016040528092919082600260200280828437600081840152601f19601f82011690508083019250505050505091929192908060800190600280602002604051908101604052809291906000905b82821015610492578382604002016002806020026040519081016040528092919082600260200280828437600081840152601f19601f8201169050808301925050505050508152602001906001019061043e565b50505050919291929080604001906002806020026040519081016040528092919082600260200280828437600081840152601f19601f820116905080830192505050505050919291929080604001906002806020026040519081016040528092919082600260200280828437600081840152601f19601f820116905080830192505050505050919291929080604001906002806020026040519081016040528092919082600260200280828437600081840152601f19601f820116905080830192505050505050919291929080604001906002806020026040519081016040528092919082600260200280828437600081840152601f19601f820116905080830192505050505050919291929080604001906002806020026040519081016040528092919082600260200280828437600081840152601f19601f820116905080830192505050505050919291929080604001906002806020026040519081016040528092919082600260200280828437600081840152601f19601f8201169050808301925050505050509192919290803573ffffffffffffffffffffffffffffffffffffffff16906020019092919080359060200190929190505050611566565b604051808215151515815260200191505060405180910390f35b6106d96004803603606081101561068357600080fd5b81019080803573ffffffffffffffffffffffffffffffffffffffff169060200190929190803573ffffffffffffffffffffffffffffffffffffffff169060200190929190803590602001909291905050506119d3565b005b61079e600480360360408110156106f157600080fd5b81019080803590602001909291908035906020019064010000000081111561071857600080fd5b82018360208201111561072a57600080fd5b8035906020019184600183028401116401000000008311171561074c57600080fd5b91908080601f016020809104026020016040519081016040528093929190818152602001838380828437600081840152601f19601f8201169050808301925050505050505091929192905050506119f6565b005b6107ec600480360360408110156107b657600080fd5b81019080803573ffffffffffffffffffffffffffffffffffffffff16906020019092919080359060200190929190505050611a39565b6040518082815260200191505060405180910390f35b61095c6004803603606081101561081857600080fd5b81019080803590602001909291908035906020019064010000000081111561083f57600080fd5b82018360208201111561085157600080fd5b8035906020019184600183028401116401000000008311171561087357600080fd5b91908080601f016020809104026020016040519081016040528093929190818152602001838380828437600081840152601f19601f820116905080830192505050505050509192919290803590602001906401000000008111156108d657600080fd5b8201836020820111156108e857600080fd5b8035906020019184600183028401116401000000008311171561090a57600080fd5b91908080601f016020809104026020016040519081016040528093929190818152602001838380828437600081840152601f19601f820116905080830192505050505050509192919290505050611aac565b005b6109aa6004803603604081101561097457600080fd5b81019080803573ffffffffffffffffffffffffffffffffffffffff16906020019092919080359060200190929190505050611ab1565b604051808215151515815260200191505060405180910390f35b610a30600480360360608110156109da57600080fd5b81019080803573ffffffffffffffffffffffffffffffffffffffff169060200190929190803573ffffffffffffffffffffffffffffffffffffffff16906020019092919080359060200190929190505050611b75565b005b610a5e60048036036020811015610a4857600080fd5b8101908080359060200190929190505050611b95565b6040518082815260200191505060405180910390f35b610aa060048036036020811015610a8a57600080fd5b8101908080359060200190929190505050611bc9565b604051808273ffffffffffffffffffffffffffffffffffffffff1673ffffffffffffffffffffffffffffffffffffffff16815260200191505060405180910390f35b610b3860048036036060811015610af857600080fd5b8101908080359060200190929190803573ffffffffffffffffffffffffffffffffffffffff16906020019092919080359060200190929190505050611c06565b604051808215151515815260200191505060405180910390f35b610b9460048036036020811015610b6857600080fd5b81019080803573ffffffffffffffffffffffffffffffffffffffff169060200190929190505050612268565b6040518082815260200191505060405180910390f35b610bb26122b8565b604051808273ffffffffffffffffffffffffffffffffffffffff1673ffffffffffffffffffffffffffffffffffffffff16815260200191505060405180910390f35b610bfc6122e1565b6040518080602001828103825283818151815260200191508051906020019080838360005b83811015610c3c578082015181840152602081019050610c21565b50505050905090810190601f168015610c695780820380516001836020036101000a031916815260200191505b509250505060405180910390f35b610cc560048036036040811015610c8d57600080fd5b81019080803573ffffffffffffffffffffffffffffffffffffffff169060200190929190803515159060200190929190505050612383565b005b610dca60048036036080811015610cdd57600080fd5b81019080803573ffffffffffffffffffffffffffffffffffffffff169060200190929190803573ffffffffffffffffffffffffffffffffffffffff1690602001909291908035906020019092919080359060200190640100000000811115610d4457600080fd5b820183602082011115610d5657600080fd5b80359060200191846001830284011164010000000083111715610d7857600080fd5b91908080601f016020809104026020016040519081016040528093929190818152602001838380828437600081840152601f19601f8201169050808301925050505050505091929192905050506124bd565b005b610df860048036036020811015610de257600080fd5b81019080803590602001909291905050506124e3565b6040518080602001828103825283818151815260200191508051906020019080838360005b83811015610e38578082015181840152602081019050610e1d565b50505050905090810190601f168015610e655780820380516001836020036101000a031916815260200191505b509250505060405180910390f35b610eb560048036036020811015610e8957600080fd5b81019080803573ffffffffffffffffffffffffffffffffffffffff169060200190929190505050612613565b005b610ebf6127b0565b6040518080602001828103825283818151815260200191508051906020019080838360005b83811015610eff578082015181840152602081019050610ee4565b50505050905090810190601f168015610f2c5780820380516001836020036101000a031916815260200191505b509250505060405180910390f35b610f9c60048036036040811015610f5057600080fd5b81019080803573ffffffffffffffffffffffffffffffffffffffff169060200190929190803573ffffffffffffffffffffffffffffffffffffffff169060200190929190505050612852565b604051808215151515815260200191505060405180910390f35b610ff860048036036020811015610fcc57600080fd5b81019080803573ffffffffffffffffffffffffffffffffffffffff1690602001909291905050506128e6565b005b600060016000837bffffffffffffffffffffffffffffffffffffffffffffffffffffffff19167bffffffffffffffffffffffffffffffffffffffffffffffffffffffff1916815260200190815260200160002060009054906101000a900460ff169050919050565b6060600f8054600181600116156101000203166002900480601f0160208091040260200160405190810160405280929190818152602001828054600181600116156101000203166002900480156110fa5780601f106110cf576101008083540402835291602001916110fa565b820191906000526020600020905b8154815290600101906020018083116110dd57829003601f168201915b5050505050905090565b600061110f82612997565b611181576040517f08c379a00000000000000000000000000000000000000000000000000000000081526004018080602001828103825260128152602001807f4e304e2d6578697374656e7420746f6b656e000000000000000000000000000081525060200191505060405180910390fd5b6003600083815260200190815260200160002060009054906101000a900473ffffffffffffffffffffffffffffffffffffffff169050919050565b60006111c782611bc9565b90508073ffffffffffffffffffffffffffffffffffffffff168373ffffffffffffffffffffffffffffffffffffffff16141561124e576040517f08c379a0000000000000000000000000000000000000000000000000000000008152600401808060200182810382526034815260200180613dfc6034913960400191505060405180910390fd5b8073ffffffffffffffffffffffffffffffffffffffff163373ffffffffffffffffffffffffffffffffffffffff16148061128e575061128d8133612852565b5b611300576040517f08c379a00000000000000000000000000000000000000000000000000000000081526004018080602001828103825260188152602001807f43616c6c6572206973206e6f7420617574686f7269736564000000000000000081525060200191505060405180910390fd5b826003600084815260200190815260200160002060006101000a81548173ffffffffffffffffffffffffffffffffffffffff021916908373ffffffffffffffffffffffffffffffffffffffff160217905550818373ffffffffffffffffffffffffffffffffffffffff166002600085815260200190815260200160002060009054906101000a900473ffffffffffffffffffffffffffffffffffffffff1673ffffffffffffffffffffffffffffffffffffffff167f8c5be1e5ebec7d5bd14f71427d1e84f3dd0314c0f7b2291e5b200ac8c7c3b92560405160405180910390a4505050565b6000809054906101000a900473ffffffffffffffffffffffffffffffffffffffff1673ffffffffffffffffffffffffffffffffffffffff163373ffffffffffffffffffffffffffffffffffffffff161461148a576040517f08c379a0000000000000000000000000000000000000000000000000000000008152600401808060200182810382526027815260200180613e306027913960400191505060405180910390fd5b801515600060149054906101000a900460ff16151514156114aa57600080fd5b80600060146101000a81548160ff0219169083151502179055508015611512573373ffffffffffffffffffffffffffffffffffffffff167f5db9ee0a495bf2e6ff9c91a7834c1ba4fdd244a5e8aa4e537bd38aeae4b073aa60405160405180910390a2611556565b3373ffffffffffffffffffffffffffffffffffffffff167f62e78cea01bee320cd4e420270b5ea74000d11b0c9f74754ebdbfc544b05a25860405160405180910390a25b50565b6000600880549050905090565b6000611570613b6b565b6040518061016001604052808e81526020018d81526020018c81526020018b81526020018a81526020018981526020018881526020018781526020018681526020018573ffffffffffffffffffffffffffffffffffffffff16815260200184815250905060008d8d8d8d8d8d8d8d8d8d8d604051602001808c600260200280838360005b8381101561160f5780820151818401526020810190506115f4565b505050509050018b600260200280838360005b8381101561163d578082015181840152602081019050611622565b505050509050018a60026000925b818410156116915782846020020151600260200280838360005b83811015611680578082015181840152602081019050611665565b50505050905001926001019261164b565b9250505089600260200280838360005b838110156116bc5780820151818401526020810190506116a1565b5050505090500188600260200280838360005b838110156116ea5780820151818401526020810190506116cf565b5050505090500187600260200280838360005b838110156117185780820151818401526020810190506116fd565b5050505090500186600260200280838360005b8381101561174657808201518184015260208101905061172b565b5050505090500185600260200280838360005b83811015611774578082015181840152602081019050611759565b5050505090500184600260200280838360005b838110156117a2578082015181840152602081019050611787565b505050509050018373ffffffffffffffffffffffffffffffffffffffff1673ffffffffffffffffffffffffffffffffffffffff1660601b81526014018281526020019b5050505050505050505050506040516020818303038152906040528051906020012090508160146000838152602001908152602001600020600082015181600001906002611834929190613c11565b5060208201518160020190600261184c929190613c11565b50604082015181600401906002611864929190613c51565b5060608201518160080190600261187c929190613c11565b50608082015181600a01906002611894929190613c11565b5060a082015181600c019060026118ac929190613c11565b5060c082015181600e019060026118c4929190613c11565b5060e0820151816010019060026118dc929190613c11565b50610100820151816012019060026118f5929190613c11565b506101208201518160140160006101000a81548173ffffffffffffffffffffffffffffffffffffffff021916908373ffffffffffffffffffffffffffffffffffffffff16021790555061014082015181601501559050507f209e782baeeecf4956303cb3e836fdf3f7279e6729ebccf2d309c292aedd3aeb33604051808273ffffffffffffffffffffffffffffffffffffffff1673ffffffffffffffffffffffffffffffffffffffff16815260200191505060405180910390a160006119bc828787611c06565b90508093505050509b9a5050505050505050505050565b6119dd3382612a09565b6119e657600080fd5b6119f1838383612a9e565b505050565b611a35828260006040519080825280601f01601f191660200182016040528015611a2f5781602001600182028038833980820191505090505b50611aac565b5050565b6000611a4483612268565b8210611a4f57600080fd5b600660008473ffffffffffffffffffffffffffffffffffffffff1673ffffffffffffffffffffffffffffffffffffffff1681526020019081526020016000208281548110611a9957fe5b9060005260206000200154905092915050565b505050565b60008060009054906101000a900473ffffffffffffffffffffffffffffffffffffffff1673ffffffffffffffffffffffffffffffffffffffff163373ffffffffffffffffffffffffffffffffffffffff1614611b58576040517f08c379a0000000000000000000000000000000000000000000000000000000008152600401808060200182810382526027815260200180613e306027913960400191505060405180910390fd5b611b628383612ac2565b611b6b82612ae3565b6001905092915050565b611b90838383604051806020016040528060008152506124bd565b505050565b6000611b9f611559565b8210611baa57600080fd5b60088281548110611bb757fe5b90600052602060002001549050919050565b60006002600083815260200190815260200160002060009054906101000a900473ffffffffffffffffffffffffffffffffffffffff169050919050565b6000806000905060006015600087815260200190815260200160002060009054906101000a900460ff169050611c3a613b6b565b601460008881526020019081526020016000206040518061016001604052908160008201600280602002604051908101604052809291908260028015611c95576020028201915b815481526020019060010190808311611c81575b5050505050815260200160028201600280602002604051908101604052809291908260028015611cda576020028201915b815481526020019060010190808311611cc6575b5050505050815260200160048201600280602002604051908101604052809291906000905b82821015611d5857838260020201600280602002604051908101604052809291908260028015611d44576020028201915b815481526020019060010190808311611d30575b505050505081526020019060010190611cff565b50505050815260200160088201600280602002604051908101604052809291908260028015611d9c576020028201915b815481526020019060010190808311611d88575b50505050508152602001600a8201600280602002604051908101604052809291908260028015611de1576020028201915b815481526020019060010190808311611dcd575b50505050508152602001600c8201600280602002604051908101604052809291908260028015611e26576020028201915b815481526020019060010190808311611e12575b50505050508152602001600e8201600280602002604051908101604052809291908260028015611e6b576020028201915b815481526020019060010190808311611e57575b5050505050815260200160108201600280602002604051908101604052809291908260028015611eb0576020028201915b815481526020019060010190808311611e9c575b5050505050815260200160128201600280602002604051908101604052809291908260028015611ef5576020028201915b815481526020019060010190808311611ee1575b505050505081526020016014820160009054906101000a900473ffffffffffffffffffffffffffffffffffffffff1673ffffffffffffffffffffffffffffffffffffffff1673ffffffffffffffffffffffffffffffffffffffff1681526020016015820154815250509050600115158215151461225b576000601360009054906101000a900473ffffffffffffffffffffffffffffffffffffffff1673ffffffffffffffffffffffffffffffffffffffff1663fe01ff62836000015184602001518560400151866060015187608001518860a001518960c001518a60e001518b61010001516040518a63ffffffff1660e01b8152600401808a600260200280838360005b83811015612014578082015181840152602081019050611ff9565b5050505090500189600260200280838360005b83811015612042578082015181840152602081019050612027565b505050509050018860026000925b818410156120965782846020020151600260200280838360005b8381101561208557808201518184015260208101905061206a565b505050509050019260010192612050565b9250505087600260200280838360005b838110156120c15780820151818401526020810190506120a6565b5050505090500186600260200280838360005b838110156120ef5780820151818401526020810190506120d4565b5050505090500185600260200280838360005b8381101561211d578082015181840152602081019050612102565b5050505090500184600260200280838360005b8381101561214b578082015181840152602081019050612130565b5050505090500183600260200280838360005b8381101561217957808201518184015260208101905061215e565b5050505090500182600260200280838360005b838110156121a757808201518184015260208101905061218c565b505050509050019950505050505050505050602060405180830381600087803b1580156121d357600080fd5b505af11580156121e7573d6000803e3d6000fd5b505050506040513d60208110156121fd57600080fd5b81019080805190602001909291905050509050600115158115151415612259576001601560008a815260200190815260200160002060006101000a81548160ff0219169083151502179055506122538787611ab1565b50600193505b505b8293505050509392505050565b60006122b1600460008473ffffffffffffffffffffffffffffffffffffffff1673ffffffffffffffffffffffffffffffffffffffff168152602001908152602001600020612c3a565b9050919050565b60008060009054906101000a900473ffffffffffffffffffffffffffffffffffffffff16905090565b606060108054600181600116156101000203166002900480601f0160208091040260200160405190810160405280929190818152602001828054600181600116156101000203166002900480156123795780601f1061234e57610100808354040283529160200191612379565b820191906000526020600020905b81548152906001019060200180831161235c57829003601f168201915b5050505050905090565b3373ffffffffffffffffffffffffffffffffffffffff168273ffffffffffffffffffffffffffffffffffffffff1614156123bc57600080fd5b80600560003373ffffffffffffffffffffffffffffffffffffffff1673ffffffffffffffffffffffffffffffffffffffff16815260200190815260200160002060008473ffffffffffffffffffffffffffffffffffffffff1673ffffffffffffffffffffffffffffffffffffffff16815260200190815260200160002060006101000a81548160ff0219169083151502179055508173ffffffffffffffffffffffffffffffffffffffff163373ffffffffffffffffffffffffffffffffffffffff167f17307eab39ab6107e8899845ad3d59bd9653f200f220920489ca2b5937696c3183604051808215151515815260200191505060405180910390a35050565b6124c88484846119d3565b6124d484848484612c48565b6124dd57600080fd5b50505050565b60606124ee82612997565b612560576040517f08c379a00000000000000000000000000000000000000000000000000000000081526004018080602001828103825260188152602001807f54686520746f6b656e20646f65736e277420657869747374000000000000000081525060200191505060405180910390fd5b601260008381526020019081526020016000208054600181600116156101000203166002900480601f0160208091040260200160405190810160405280929190818152602001828054600181600116156101000203166002900480156126075780601f106125dc57610100808354040283529160200191612607565b820191906000526020600020905b8154815290600101906020018083116125ea57829003601f168201915b50505050509050919050565b6000809054906101000a900473ffffffffffffffffffffffffffffffffffffffff1673ffffffffffffffffffffffffffffffffffffffff163373ffffffffffffffffffffffffffffffffffffffff16146126b8576040517f08c379a0000000000000000000000000000000000000000000000000000000008152600401808060200182810382526027815260200180613e306027913960400191505060405180910390fd5b600073ffffffffffffffffffffffffffffffffffffffff168173ffffffffffffffffffffffffffffffffffffffff1614156126f257600080fd5b8073ffffffffffffffffffffffffffffffffffffffff166000809054906101000a900473ffffffffffffffffffffffffffffffffffffffff1673ffffffffffffffffffffffffffffffffffffffff167f5c486528ec3e3f0ea91181cff8116f02bfa350e03b8b6f12e00765adbb5af85c60405160405180910390a3806000806101000a81548173ffffffffffffffffffffffffffffffffffffffff021916908373ffffffffffffffffffffffffffffffffffffffff16021790555050565b606060118054600181600116156101000203166002900480601f0160208091040260200160405190810160405280929190818152602001828054600181600116156101000203166002900480156128485780601f1061281d57610100808354040283529160200191612848565b820191906000526020600020905b81548152906001019060200180831161282b57829003601f168201915b5050505050905090565b6000600560008473ffffffffffffffffffffffffffffffffffffffff1673ffffffffffffffffffffffffffffffffffffffff16815260200190815260200160002060008373ffffffffffffffffffffffffffffffffffffffff1673ffffffffffffffffffffffffffffffffffffffff16815260200190815260200160002060009054906101000a900460ff16905092915050565b6000809054906101000a900473ffffffffffffffffffffffffffffffffffffffff1673ffffffffffffffffffffffffffffffffffffffff163373ffffffffffffffffffffffffffffffffffffffff161461298b576040517f08c379a0000000000000000000000000000000000000000000000000000000008152600401808060200182810382526027815260200180613e306027913960400191505060405180910390fd5b61299481612613565b50565b6000806002600084815260200190815260200160002060009054906101000a900473ffffffffffffffffffffffffffffffffffffffff169050600073ffffffffffffffffffffffffffffffffffffffff168173ffffffffffffffffffffffffffffffffffffffff161415915050919050565b600080612a1583611bc9565b90508073ffffffffffffffffffffffffffffffffffffffff168473ffffffffffffffffffffffffffffffffffffffff161480612a8457508373ffffffffffffffffffffffffffffffffffffffff16612a6c84611104565b73ffffffffffffffffffffffffffffffffffffffff16145b80612a955750612a948185612852565b5b91505092915050565b612aa9838383612e31565b612ab383826130c6565b612abd8282613264565b505050565b612acc828261332b565b612ad68282613264565b612adf816134a0565b5050565b612aec81612997565b612b5e576040517f08c379a00000000000000000000000000000000000000000000000000000000081526004018080602001828103825260198152602001807f5468697320746f6b656e20646f65736e2774206578697473740000000000000081525060200191505060405180910390fd5b6060612b69826134ec565b9050612c0f60118054600181600116156101000203166002900480601f016020809104026020016040519081016040528092919081815260200182805460018160011615610100020316600290048015612c045780601f10612bd957610100808354040283529160200191612c04565b820191906000526020600020905b815481529060010190602001808311612be757829003601f168201915b505050505082613619565b601260008481526020019081526020016000209080519060200190612c35929190613ca1565b505050565b600081600001549050919050565b6000612c698473ffffffffffffffffffffffffffffffffffffffff1661365d565b612c765760019050612e29565b60008473ffffffffffffffffffffffffffffffffffffffff1663150b7a02338887876040518563ffffffff1660e01b8152600401808573ffffffffffffffffffffffffffffffffffffffff1673ffffffffffffffffffffffffffffffffffffffff1681526020018473ffffffffffffffffffffffffffffffffffffffff1673ffffffffffffffffffffffffffffffffffffffff16815260200183815260200180602001828103825283818151815260200191508051906020019080838360005b83811015612d51578082015181840152602081019050612d36565b50505050905090810190601f168015612d7e5780820380516001836020036101000a031916815260200191505b5095505050505050602060405180830381600087803b158015612da057600080fd5b505af1158015612db4573d6000803e3d6000fd5b505050506040513d6020811015612dca57600080fd5b8101908080519060200190929190505050905063150b7a0260e01b7bffffffffffffffffffffffffffffffffffffffffffffffffffffffff1916817bffffffffffffffffffffffffffffffffffffffffffffffffffffffff1916149150505b949350505050565b8273ffffffffffffffffffffffffffffffffffffffff16612e5182611bc9565b73ffffffffffffffffffffffffffffffffffffffff1614612eda576040517f08c379a000000000000000000000000000000000000000000000000000000000815260040180806020018281038252600f8152602001807f496e636f7272656374206f776e6572000000000000000000000000000000000081525060200191505060405180910390fd5b600073ffffffffffffffffffffffffffffffffffffffff168273ffffffffffffffffffffffffffffffffffffffff161415612f7d576040517f08c379a00000000000000000000000000000000000000000000000000000000081526004018080602001828103825260178152602001807f4e6f7420616c6c6f77656420746f207472616e7366657200000000000000000081525060200191505060405180910390fd5b612f86816136a8565b612fcd600460008573ffffffffffffffffffffffffffffffffffffffff1673ffffffffffffffffffffffffffffffffffffffff168152602001908152602001600020613766565b613014600460008473ffffffffffffffffffffffffffffffffffffffff1673ffffffffffffffffffffffffffffffffffffffff168152602001908152602001600020613789565b816002600083815260200190815260200160002060006101000a81548173ffffffffffffffffffffffffffffffffffffffff021916908373ffffffffffffffffffffffffffffffffffffffff160217905550808273ffffffffffffffffffffffffffffffffffffffff168473ffffffffffffffffffffffffffffffffffffffff167fddf252ad1be2c89b69c2b068fc378daa952ba7f163c4a11628f55a4df523b3ef60405160405180910390a4505050565b600061311e6001600660008673ffffffffffffffffffffffffffffffffffffffff1673ffffffffffffffffffffffffffffffffffffffff1681526020019081526020016000208054905061379f90919063ffffffff16565b905060006007600084815260200190815260200160002054905081811461320b576000600660008673ffffffffffffffffffffffffffffffffffffffff1673ffffffffffffffffffffffffffffffffffffffff168152602001908152602001600020838154811061318b57fe5b9060005260206000200154905080600660008773ffffffffffffffffffffffffffffffffffffffff1673ffffffffffffffffffffffffffffffffffffffff16815260200190815260200160002083815481106131e357fe5b9060005260206000200181905550816007600083815260200190815260200160002081905550505b600660008573ffffffffffffffffffffffffffffffffffffffff1673ffffffffffffffffffffffffffffffffffffffff16815260200190815260200160002080548091906001900361325d9190613d21565b5050505050565b600660008373ffffffffffffffffffffffffffffffffffffffff1673ffffffffffffffffffffffffffffffffffffffff168152602001908152602001600020805490506007600083815260200190815260200160002081905550600660008373ffffffffffffffffffffffffffffffffffffffff1673ffffffffffffffffffffffffffffffffffffffff1681526020019081526020016000208190806001815401808255809150509060018203906000526020600020016000909192909190915055505050565b61333481612997565b156133a7576040517f08c379a000000000000000000000000000000000000000000000000000000000815260040180806020018281038252601c8152602001807f5468697320746f6b656e20697320616c7265616479206578697374730000000081525060200191505060405180910390fd5b816002600083815260200190815260200160002060006101000a81548173ffffffffffffffffffffffffffffffffffffffff021916908373ffffffffffffffffffffffffffffffffffffffff160217905550613440600460008473ffffffffffffffffffffffffffffffffffffffff1673ffffffffffffffffffffffffffffffffffffffff168152602001908152602001600020613789565b808273ffffffffffffffffffffffffffffffffffffffff16600073ffffffffffffffffffffffffffffffffffffffff167fddf252ad1be2c89b69c2b068fc378daa952ba7f163c4a11628f55a4df523b3ef60405160405180910390a45050565b6008805490506009600083815260200190815260200160002081905550600881908060018154018082558091505090600182039060005260206000200160009091929091909150555050565b60606000821415613534576040518060400160405280600181526020017f30000000000000000000000000000000000000000000000000000000000000008152509050613614565b600082905060005b6000821461355e578080600101915050600a828161355657fe5b04915061353c565b6060816040519080825280601f01601f1916602001820160405280156135935781602001600182028038833980820191505090505b50905060006001830390505b6000861461360c57600a86816135b157fe5b0660300160f81b828280600190039350815181106135cb57fe5b60200101907effffffffffffffffffffffffffffffffffffffffffffffffffffffffffffff1916908160001a905350600a868161360457fe5b04955061359f565b819450505050505b919050565b606061365583836040518060200160405280600081525060405180602001604052806000815250604051806020016040528060008152506137e9565b905092915050565b60008060007fc5d2460186f7233c927e7db2dcc703c0e500b653ca82273b7bfad8045d85a47060001b9050833f915080821415801561369f57506000801b8214155b92505050919050565b600073ffffffffffffffffffffffffffffffffffffffff166003600083815260200190815260200160002060009054906101000a900473ffffffffffffffffffffffffffffffffffffffff1673ffffffffffffffffffffffffffffffffffffffff16146137635760006003600083815260200190815260200160002060006101000a81548173ffffffffffffffffffffffffffffffffffffffff021916908373ffffffffffffffffffffffffffffffffffffffff1602179055505b50565b61377e6001826000015461379f90919063ffffffff16565b816000018190555050565b6001816000016000828254019250508190555050565b60006137e183836040518060400160405280601e81526020017f536166654d6174683a207375627472616374696f6e206f766572666c6f770000815250613aab565b905092915050565b6060808690506060869050606086905060608690506060869050606081518351855187518951010101016040519080825280601f01601f1916602001820160405280156138455781602001600182028038833980820191505090505b509050606081905060008090506000809050600090505b88518110156138ca5788818151811061387157fe5b602001015160f81c60f81b83838060010194508151811061388e57fe5b60200101907effffffffffffffffffffffffffffffffffffffffffffffffffffffffffffff1916908160001a905350808060010191505061385c565b600090505b875181101561393d578781815181106138e457fe5b602001015160f81c60f81b83838060010194508151811061390157fe5b60200101907effffffffffffffffffffffffffffffffffffffffffffffffffffffffffffff1916908160001a90535080806001019150506138cf565b600090505b86518110156139b05786818151811061395757fe5b602001015160f81c60f81b83838060010194508151811061397457fe5b60200101907effffffffffffffffffffffffffffffffffffffffffffffffffffffffffffff1916908160001a9053508080600101915050613942565b600090505b8551811015613a23578581815181106139ca57fe5b602001015160f81c60f81b8383806001019450815181106139e757fe5b60200101907effffffffffffffffffffffffffffffffffffffffffffffffffffffffffffff1916908160001a90535080806001019150506139b5565b600090505b8451811015613a9657848181518110613a3d57fe5b602001015160f81c60f81b838380600101945081518110613a5a57fe5b60200101907effffffffffffffffffffffffffffffffffffffffffffffffffffffffffffff1916908160001a9053508080600101915050613a28565b82995050505050505050505095945050505050565b6000838311158290613b58576040517f08c379a00000000000000000000000000000000000000000000000000000000081526004018080602001828103825283818151815260200191508051906020019080838360005b83811015613b1d578082015181840152602081019050613b02565b50505050905090810190601f168015613b4a5780820380516001836020036101000a031916815260200191505b509250505060405180910390fd5b5060008385039050809150509392505050565b604051806101600160405280613b7f613d4d565b8152602001613b8c613d4d565b8152602001613b99613d6f565b8152602001613ba6613d4d565b8152602001613bb3613d4d565b8152602001613bc0613d4d565b8152602001613bcd613d4d565b8152602001613bda613d4d565b8152602001613be7613d4d565b8152602001600073ffffffffffffffffffffffffffffffffffffffff168152602001600081525090565b8260028101928215613c40579160200282015b82811115613c3f578251825591602001919060010190613c24565b5b509050613c4d9190613d9c565b5090565b82600280028101928215613c90579160200282015b82811115613c8f57825182906002613c7f929190613c11565b5091602001919060020190613c66565b5b509050613c9d9190613dc1565b5090565b828054600181600116156101000203166002900490600052602060002090601f016020900481019282601f10613ce257805160ff1916838001178555613d10565b82800160010185558215613d10579182015b82811115613d0f578251825591602001919060010190613cf4565b5b509050613d1d9190613d9c565b5090565b815481835581811115613d4857818360005260206000209182019101613d479190613d9c565b5b505050565b6040518060400160405280600290602082028038833980820191505090505090565b60405180604001604052806002905b613d86613d4d565b815260200190600190039081613d7e5790505090565b613dbe91905b80821115613dba576000816000905550600101613da2565b5090565b90565b613dea91905b80821115613de65760008181613ddd9190613ded565b50600201613dc7565b5090565b90565b50600081556001016000905556fe2074686520676976656e20616464726573732063616e277420626520746865206f776e6572206f662074686520746f6b656e49644f6e6c7920746865206f776e65722063616e20706572666f726d207468697320616374696f6e2ea265627a7a72315820928f8385f21d5bc9b95d36f562a762ac77cedd87c99822796f023d35f89428a564736f6c63430005100032",
  "source": "pragma solidity >=0.4.21 <0.6.0;\n\nimport './ERC721Mintable.sol';\n\n// TODO define another contract named SolnSquareVerifier that inherits from your CustomERC721Token class\ncontract SolnSquareVerifier is CustomERC721Token {\n\n    Verifier verifierContract;\n// TODO define a solutions struct that can hold an index & an address\n    struct Solution {\n        uint[2]  a;\n        uint[2]  a_p;\n        uint[2][2]  b;\n        uint[2]  b_p;\n        uint[2]  c;\n        uint[2]  c_p;\n        uint[2]  h;\n        uint[2]  k;\n        uint[2]  input;\n        address to;\n        uint256 tokenId;\n    }\n\n// TODO define an array of the above struct\n    mapping(bytes32 => Solution) solutions;\n\n// TODO define a mapping to store unique solutions submitted\n    mapping(bytes32 => bool) solutionsExist;\n\n// TODO Create an event to emit when a solution is added\n    event SolutionAdded(address owner);\n    constructor(address verifierAddress, string memory name, string memory symbol, string memory baseTokenURI )\n        CustomERC721Token(name, symbol, baseTokenURI) public\n    {\n        verifierContract = Verifier(verifierAddress);\n    }\n\n// TODO Create a function to add the solutions to the array and emit the event\n    function addSolution(uint[2] memory a, uint[2] memory a_p, uint[2][2] memory b, uint[2] memory b_p, uint[2] memory c, uint[2] memory c_p,\n                         uint[2] memory h, uint[2] memory k, uint[2] memory input, address to, uint256 tokenId) public returns (bool)\n    {\n        Solution memory Sol = Solution(a, a_p, b, b_p, c, c_p, h, k, input,to,tokenId);\n        bytes32 key = keccak256(abi.encodePacked(a,a_p,b,b_p,c,c_p,h,k,input,to,tokenId));\n        solutions[key] = Sol;\n        emit SolutionAdded(msg.sender);\n        bool check = mintVerified(key,to,tokenId);\n        return check;\n    }\n\n// TODO Create a function to mint new NFT only after the solution has been verified\n    function mintVerified( bytes32 key, address to, uint256 tokenId) public returns (bool)\n    {\n        bool Completed = false;\n        bool check = solutionsExist[key];\n        Solution memory sol = solutions[key];\n        if(check != true)\n        {\n          bool verification = verifierContract.verifyTx(sol.a,sol.a_p,sol.b,sol.b_p,sol.c,sol.c_p,sol.h,sol.k,sol.input);\n          if(verification == true)\n            {\n            solutionsExist[key] = true;\n            super.mint(to,tokenId);\n            Completed = true;\n            }\n        }\n        return Completed;\n    }\n}\ncontract Verifier\n{\n    function verifyTx(uint[2] memory  a, uint[2] memory  a_p, uint[2][2] memory  b, uint[2] memory  b_p, uint[2] memory  c, uint[2] memory  c_p,\n                      uint[2] memory  h, uint[2] memory  k, uint[2] memory  input ) public returns (bool r);\n}",
  "sourcePath": "/Users/federico/Documents/Blockchain/udacity/new/realstate-capstone/eth-contracts/contracts/SolnSquareVerifier.sol",
  "compiler": {
    "name": "solc",
    "version": "0.5.16+commit.9c3226ce.Emscripten.clang"
  },
  "schemaVersion": "3.4.10",
  "updatedAt": "2023-01-18T15:41:31.472Z",
  "devdoc": {
    "methods": {
      "isApprovedForAll(address,address)": {
        "details": "Tells whether an operator is approved by a given owner",
        "params": {
          "operator": "operator address which you want to query the approval of",
          "owner": "owner address which you want to query the approval of"
        },
        "return": "bool whether the given operator is approved by the given owner"
      },
      "setApprovalForAll(address,bool)": {
        "details": "Sets or unsets the approval of a given operator An operator is allowed to transfer all tokens of the sender on their behalf",
        "params": {
          "approved": "representing the status of the approval to be set",
          "to": "operator address to set the approval"
        }
      },
      "supportsInterface(bytes4)": {
        "details": "implement supportsInterface(bytes4) using a lookup table"
      },
      "tokenByIndex(uint256)": {
        "details": "Gets the token ID at a given index of all the tokens in this contract Reverts if the index is greater or equal to the total number of tokens",
        "params": {
          "index": "uint256 representing the index to be accessed of the tokens list"
        },
        "return": "uint256 token ID at the given index of the tokens list"
      },
      "tokenOfOwnerByIndex(address,uint256)": {
        "details": "Gets the token ID at a given index of the tokens list of the requested owner",
        "params": {
          "index": "uint256 representing the index to be accessed of the requested tokens list",
          "owner": "address owning the tokens list to be accessed"
        },
        "return": "uint256 token ID at the given index of the tokens list owned by the requested address"
      },
      "totalSupply()": {
        "details": "Gets the total amount of tokens stored by the contract",
        "return": "uint256 representing the total amount of tokens"
      }
    }
  },
  "userdoc": {
    "methods": {}
  }
}